{"Contracts/vote.sol":{"vote":{"abi":[{"inputs":[{"internalType":"address","name":"ElectionCommissioner","type":"address"}],"stateMutability":"nonpayable","type":"constructor"},{"inputs":[],"name":"vote__AlreadyVoteGivenError","type":"error"},{"inputs":[],"name":"vote__NotElectionCommissonerError","type":"error"},{"inputs":[],"name":"vote__UnderagedVoterError","type":"error"},{"inputs":[],"name":"vote__VoterDetailsNotAddedError","type":"error"},{"inputs":[],"name":"vote__ZeroVotedError","type":"error"},{"inputs":[],"name":"vote__noReleventDataFoundError","type":"error"},{"inputs":[],"name":"vote__voteGivenAlready","type":"error"},{"inputs":[],"name":"vote__wrongWardNumberError","type":"error"},{"anonymous":false,"inputs":[{"indexed":true,"internalType":"address","name":"voterAddress","type":"address"},{"indexed":true,"internalType":"uint256","name":"AadharNumber","type":"uint256"},{"indexed":true,"internalType":"string","name":"PanNumber","type":"string"}],"name":"VoterDetailsAdded","type":"event"},{"anonymous":false,"inputs":[{"indexed":true,"internalType":"address","name":"voterAddress","type":"address"}],"name":"detailsUpdated","type":"event"},{"inputs":[],"name":"CalculateWinnerCandidate","outputs":[],"stateMutability":"nonpayable","type":"function"},{"inputs":[],"name":"CandidateLottery","outputs":[{"internalType":"string","name":"","type":"string"}],"stateMutability":"pure","type":"function"},{"inputs":[{"internalType":"string","name":"name","type":"string"},{"internalType":"uint16","name":"age","type":"uint16"},{"internalType":"string","name":"nationality","type":"string"},{"internalType":"uint256","name":"aadhar","type":"uint256"},{"internalType":"string","name":"pan","type":"string"},{"internalType":"uint16","name":"ward_no","type":"uint16"}],"name":"EntreDetails","outputs":[],"stateMutability":"nonpayable","type":"function"},{"inputs":[{"internalType":"address","name":"voter","type":"address"},{"internalType":"uint256","name":"aadhar","type":"uint256"}],"name":"approveVote","outputs":[],"stateMutability":"nonpayable","type":"function"},{"inputs":[{"internalType":"address","name":"voter","type":"address"},{"internalType":"string","name":"candidate","type":"string"}],"name":"giveVote","outputs":[],"stateMutability":"nonpayable","type":"function"},{"inputs":[{"internalType":"uint256","name":"","type":"uint256"}],"name":"s_totalVoters","outputs":[{"internalType":"address","name":"","type":"address"}],"stateMutability":"view","type":"function"},{"inputs":[{"internalType":"address","name":"voter","type":"address"}],"name":"showMyDetails","outputs":[{"components":[{"internalType":"string","name":"Name","type":"string"},{"internalType":"uint16","name":"Age","type":"uint16"},{"internalType":"string","name":"Nationality","type":"string"},{"internalType":"uint256","name":"Aadhar","type":"uint256"},{"internalType":"string","name":"Pan","type":"string"},{"internalType":"uint16","name":"Ward","type":"uint16"},{"internalType":"bool","name":"voteGivenOrNot","type":"bool"}],"internalType":"struct vote.VoterDetails","name":"","type":"tuple"}],"stateMutability":"view","type":"function"},{"inputs":[],"name":"showTotalVotedCount","outputs":[{"internalType":"uint256","name":"","type":"uint256"}],"stateMutability":"view","type":"function"},{"inputs":[],"name":"showWinner","outputs":[{"internalType":"string","name":"","type":"string"}],"stateMutability":"view","type":"function"},{"inputs":[],"name":"totalNonVotedCount","outputs":[{"internalType":"uint256","name":"","type":"uint256"}],"stateMutability":"view","type":"function"},{"inputs":[{"internalType":"address","name":"voterAddress","type":"address"},{"internalType":"string","name":"name","type":"string"},{"internalType":"uint16","name":"age","type":"uint16"},{"internalType":"string","name":"nationality","type":"string"},{"internalType":"uint256","name":"aadhar","type":"uint256"},{"internalType":"string","name":"pan","type":"string"},{"internalType":"uint16","name":"ward_no","type":"uint16"}],"name":"updateDetails","outputs":[],"stateMutability":"nonpayable","type":"function"}],"devdoc":{"kind":"dev","methods":{},"version":1},"evm":{"bytecode":{"linkReferences":{},"object":"60a06040526000805560006001556000600255600060035560006009556000600a5560405180608001604052806040518060400160405280600981526020017f416d69742073686168000000000000000000000000000000000000000000000081525081526020016040518060400160405280600c81526020017f526168756c2067616e646869000000000000000000000000000000000000000081525081526020016040518060400160405280600f81526020017f4d616d6174612062616e6172676565000000000000000000000000000000000081525081526020016040518060400160405280601081526020017f417276696e64204b656a61726977616c00000000000000000000000000000000815250815250600b9060046200012892919062000197565b503480156200013657600080fd5b50604051620026973803806200269783398181016040528101906200015c919062000379565b8073ffffffffffffffffffffffffffffffffffffffff1660808173ffffffffffffffffffffffffffffffffffffffff16815250505062000410565b8260048101928215620001de579160200282015b82811115620001dd578251829080519060200190620001cc929190620001f1565b5091602001919060010190620001ab565b5b509050620001ed919062000282565b5090565b828054620001ff90620003da565b90600052602060002090601f0160209004810192826200022357600085556200026f565b82601f106200023e57805160ff19168380011785556200026f565b828001600101855582156200026f579182015b828111156200026e57825182559160200191906001019062000251565b5b5090506200027e9190620002aa565b5090565b5b80821115620002a657600081816200029c9190620002c9565b5060010162000283565b5090565b5b80821115620002c5576000816000905550600101620002ab565b5090565b508054620002d790620003da565b6000825580601f10620002eb57506200030c565b601f0160209004906000526020600020908101906200030b9190620002aa565b5b50565b600080fd5b600073ffffffffffffffffffffffffffffffffffffffff82169050919050565b6000620003418262000314565b9050919050565b620003538162000334565b81146200035f57600080fd5b50565b600081519050620003738162000348565b92915050565b6000602082840312156200039257620003916200030f565b5b6000620003a28482850162000362565b91505092915050565b7f4e487b7100000000000000000000000000000000000000000000000000000000600052602260045260246000fd5b60006002820490506001821680620003f357607f821691505b602082108114156200040a5762000409620003ab565b5b50919050565b60805161226b6200042c6000396000610c7f015261226b6000f3fe608060405234801561001057600080fd5b50600436106100a95760003560e01c80636a9b8805116100715780636a9b8805146101505780637d0e540b1461015a5780639c2050e514610178578063b7e03264146101a8578063ddbbeff0146101c6578063ea6fb131146101e4576100a9565b80630fc1ab0c146100ae5780632a20a300146100de578063428dd1e2146100fa578063589e2b74146101185780635fa20a4714610134575b600080fd5b6100c860048036038101906100c391906118aa565b610200565b6040516100d59190611a6b565b60405180910390f35b6100f860048036038101906100f39190611bc2565b6104ff565b005b61010261064e565b60405161010f9190611c2d565b60405180910390f35b610132600480360381019061012d9190611ca0565b610658565b005b61014e60048036038101906101499190611d81565b610903565b005b610158610c7d565b005b610162610f9c565b60405161016f9190611ec1565b60405180910390f35b610192600480360381019061018d9190611ee3565b610fd9565b60405161019f9190611f1f565b60405180910390f35b6101b0611018565b6040516101bd9190611ec1565b60405180910390f35b6101ce6110e5565b6040516101db9190611c2d565b60405180910390f35b6101fe60048036038101906101f99190611f3a565b611104565b005b610208611681565b81600760008273ffffffffffffffffffffffffffffffffffffffff1673ffffffffffffffffffffffffffffffffffffffff16815260200190815260200160002060009054906101000a900460ff1661028c576040517f1b99d2ef00000000000000000000000000000000000000000000000000000000815260040160405180910390fd5b6000600560008573ffffffffffffffffffffffffffffffffffffffff1673ffffffffffffffffffffffffffffffffffffffff1681526020019081526020016000206040518060e00160405290816000820180546102e890611fa9565b80601f016020809104026020016040519081016040528092919081815260200182805461031490611fa9565b80156103615780601f1061033657610100808354040283529160200191610361565b820191906000526020600020905b81548152906001019060200180831161034457829003601f168201915b505050505081526020016001820160009054906101000a900461ffff1661ffff1661ffff16815260200160028201805461039a90611fa9565b80601f01602080910402602001604051908101604052809291908181526020018280546103c690611fa9565b80156104135780601f106103e857610100808354040283529160200191610413565b820191906000526020600020905b8154815290600101906020018083116103f657829003601f168201915b505050505081526020016003820154815260200160048201805461043690611fa9565b80601f016020809104026020016040519081016040528092919081815260200182805461046290611fa9565b80156104af5780601f10610484576101008083540402835291602001916104af565b820191906000526020600020905b81548152906001019060200180831161049257829003601f168201915b505050505081526020016005820160009054906101000a900461ffff1661ffff1661ffff1681526020016005820160029054906101000a900460ff16151515158152505090508092505050919050565b8160011515600560008373ffffffffffffffffffffffffffffffffffffffff1673ffffffffffffffffffffffffffffffffffffffff16815260200190815260200160002060050160029054906101000a900460ff161515141561058e576040517f10a092e600000000000000000000000000000000000000000000000000000000815260040160405180910390fd5b82600760008273ffffffffffffffffffffffffffffffffffffffff1673ffffffffffffffffffffffffffffffffffffffff16815260200190815260200160002060009054906101000a900460ff16610612576040517f1b99d2ef00000000000000000000000000000000000000000000000000000000815260040160405180910390fd5b60016006846040516106249190612017565b90815260200160405180910390206000828254610641919061205d565b9250508190555050505050565b6000600954905090565b8460128161ffff161015610698576040517f430dbc5d00000000000000000000000000000000000000000000000000000000815260040160405180910390fd5b60006040518060e001604052808981526020018861ffff1681526020018781526020018681526020018581526020018461ffff16815260200160001515815250905080600560003373ffffffffffffffffffffffffffffffffffffffff1673ffffffffffffffffffffffffffffffffffffffff16815260200190815260200160002060008201518160000190805190602001906107369291906116c8565b5060208201518160010160006101000a81548161ffff021916908361ffff16021790555060408201518160020190805190602001906107769291906116c8565b5060608201518160030155608082015181600401908051906020019061079d9291906116c8565b5060a08201518160050160006101000a81548161ffff021916908361ffff16021790555060c08201518160050160026101000a81548160ff0219169083151502179055509050506008339080600181540180825580915050600190039060005260206000200160009091909190916101000a81548173ffffffffffffffffffffffffffffffffffffffff021916908373ffffffffffffffffffffffffffffffffffffffff1602179055506001600760003373ffffffffffffffffffffffffffffffffffffffff1673ffffffffffffffffffffffffffffffffffffffff16815260200190815260200160002060006101000a81548160ff021916908315150217905550836040516108ad9190612017565b6040518091039020853373ffffffffffffffffffffffffffffffffffffffff167f169163ab44c39aa80f98cb982dce8487b9b35a2bbb12a14fb0a895943030b1b160405160405180910390a45050505050505050565b8460128161ffff161015610943576040517f430dbc5d00000000000000000000000000000000000000000000000000000000815260040160405180910390fd5b33600760008273ffffffffffffffffffffffffffffffffffffffff1673ffffffffffffffffffffffffffffffffffffffff16815260200190815260200160002060009054906101000a900460ff166109c7576040517f1b99d2ef00000000000000000000000000000000000000000000000000000000815260040160405180910390fd5b600560008a73ffffffffffffffffffffffffffffffffffffffff1673ffffffffffffffffffffffffffffffffffffffff16815260200190815260200160002060008082016000610a17919061174e565b6001820160006101000a81549061ffff0219169055600282016000610a3c919061174e565b6003820160009055600482016000610a54919061174e565b6005820160006101000a81549061ffff02191690556005820160026101000a81549060ff0219169055505060006040518060e001604052808a81526020018961ffff1681526020018881526020018781526020018681526020018561ffff16815260200160001515815250905080600560008c73ffffffffffffffffffffffffffffffffffffffff1673ffffffffffffffffffffffffffffffffffffffff1681526020019081526020016000206000820151816000019080519060200190610b1d9291906116c8565b5060208201518160010160006101000a81548161ffff021916908361ffff1602179055506040820151816002019080519060200190610b5d9291906116c8565b50606082015181600301556080820151816004019080519060200190610b849291906116c8565b5060a08201518160050160006101000a81548161ffff021916908361ffff16021790555060c08201518160050160026101000a81548160ff02191690831515021790555090505060088a9080600181540180825580915050600190039060005260206000200160009091909190916101000a81548173ffffffffffffffffffffffffffffffffffffffff021916908373ffffffffffffffffffffffffffffffffffffffff1602179055503373ffffffffffffffffffffffffffffffffffffffff167f255d49a274951e15bd19e1b7983bbede89281e9a32df803a41f54148c80a51bf60405160405180910390a250505050505050505050565b7f000000000000000000000000000000000000000000000000000000000000000073ffffffffffffffffffffffffffffffffffffffff163373ffffffffffffffffffffffffffffffffffffffff1614610d02576040517fbd817d3700000000000000000000000000000000000000000000000000000000815260040160405180910390fd5b600060095411610d3d576040517e80ece400000000000000000000000000000000000000000000000000000000815260040160405180910390fd5b60005b6008805490508161ffff161015610eea57600060088261ffff1681548110610d6b57610d6a6120b3565b5b9060005260206000200160009054906101000a900473ffffffffffffffffffffffffffffffffffffffff169050600560008273ffffffffffffffffffffffffffffffffffffffff1673ffffffffffffffffffffffffffffffffffffffff16815260200190815260200160002060050160029054906101000a900460ff1615610ed6576006600b600060048110610e0457610e036120b3565b5b01604051610e129190612176565b9081526020016040518091039020546000819055506006600b600160048110610e3e57610e3d6120b3565b5b01604051610e4c9190612176565b9081526020016040518091039020546001819055506006600b600260048110610e7857610e776120b3565b5b01604051610e869190612176565b9081526020016040518091039020546002819055506006600b600360048110610eb257610eb16120b3565b5b01604051610ec09190612176565b9081526020016040518091039020546003819055505b508080610ee29061218d565b915050610d40565b506000610f0160005460015460025460035461162d565b905060005b60048161ffff161015610f9857816006600b8361ffff1660048110610f2e57610f2d6120b3565b5b01604051610f3c9190612176565b9081526020016040518091039020541415610f8557600b8161ffff1660048110610f6957610f686120b3565b5b016004908054610f7890611fa9565b610f8392919061178e565b505b8080610f909061218d565b915050610f06565b5050565b60606040518060400160405280600e81526020017f676f20666f72206c6f7474657279000000000000000000000000000000000000815250905090565b60088181548110610fe957600080fd5b906000526020600020016000915054906101000a900473ffffffffffffffffffffffffffffffffffffffff1681565b6060600060095411611055576040517e80ece400000000000000000000000000000000000000000000000000000000815260040160405180910390fd5b6004805461106290611fa9565b80601f016020809104026020016040519081016040528092919081815260200182805461108e90611fa9565b80156110db5780601f106110b0576101008083540402835291602001916110db565b820191906000526020600020905b8154815290600101906020018083116110be57829003601f168201915b5050505050905090565b6000806009546008805490506110fb91906121b8565b90508091505090565b6000600560008473ffffffffffffffffffffffffffffffffffffffff1673ffffffffffffffffffffffffffffffffffffffff1681526020019081526020016000206040518060e001604052908160008201805461116090611fa9565b80601f016020809104026020016040519081016040528092919081815260200182805461118c90611fa9565b80156111d95780601f106111ae576101008083540402835291602001916111d9565b820191906000526020600020905b8154815290600101906020018083116111bc57829003601f168201915b505050505081526020016001820160009054906101000a900461ffff1661ffff1661ffff16815260200160028201805461121290611fa9565b80601f016020809104026020016040519081016040528092919081815260200182805461123e90611fa9565b801561128b5780601f106112605761010080835404028352916020019161128b565b820191906000526020600020905b81548152906001019060200180831161126e57829003601f168201915b50505050508152602001600382015481526020016004820180546112ae90611fa9565b80601f01602080910402602001604051908101604052809291908181526020018280546112da90611fa9565b80156113275780601f106112fc57610100808354040283529160200191611327565b820191906000526020600020905b81548152906001019060200180831161130a57829003601f168201915b505050505081526020016005820160009054906101000a900461ffff1661ffff1661ffff1681526020016005820160029054906101000a900460ff1615151515815250509050818160600151146113aa576040517f07b4979400000000000000000000000000000000000000000000000000000000815260040160405180910390fd5b8060c00151156113e6576040517f18e3f3b300000000000000000000000000000000000000000000000000000000815260040160405180910390fd5b60c88160a0015161ffff16118015611406575060648160a0015161ffff16105b1561143d576040517fdf96d29d00000000000000000000000000000000000000000000000000000000815260040160405180910390fd5b60018160c0019015159081151581525050600560003373ffffffffffffffffffffffffffffffffffffffff1673ffffffffffffffffffffffffffffffffffffffff1681526020019081526020016000206000808201600061149e919061174e565b6001820160006101000a81549061ffff02191690556002820160006114c3919061174e565b60038201600090556004820160006114db919061174e565b6005820160006101000a81549061ffff02191690556005820160026101000a81549060ff0219169055505080600560003373ffffffffffffffffffffffffffffffffffffffff1673ffffffffffffffffffffffffffffffffffffffff16815260200190815260200160002060008201518160000190805190602001906115629291906116c8565b5060208201518160010160006101000a81548161ffff021916908361ffff16021790555060408201518160020190805190602001906115a29291906116c8565b506060820151816003015560808201518160040190805190602001906115c99291906116c8565b5060a08201518160050160006101000a81548161ffff021916908361ffff16021790555060c08201518160050160026101000a81548160ff02191690831515021790555090505060096000815480929190611623906121ec565b9190505550505050565b60008060009050600080868811156116475787925061164b565b8692505b8486111561165b5785915061165f565b8491505b8183111561166f57829050611673565b8190505b809350505050949350505050565b6040518060e0016040528060608152602001600061ffff168152602001606081526020016000815260200160608152602001600061ffff1681526020016000151581525090565b8280546116d490611fa9565b90600052602060002090601f0160209004810192826116f6576000855561173d565b82601f1061170f57805160ff191683800117855561173d565b8280016001018555821561173d579182015b8281111561173c578251825591602001919060010190611721565b5b50905061174a919061181b565b5090565b50805461175a90611fa9565b6000825580601f1061176c575061178b565b601f01602090049060005260206000209081019061178a919061181b565b5b50565b82805461179a90611fa9565b90600052602060002090601f0160209004810192826117bc576000855561180a565b82601f106117cd578054855561180a565b8280016001018555821561180a57600052602060002091601f016020900482015b828111156118095782548255916001019190600101906117ee565b5b509050611817919061181b565b5090565b5b8082111561183457600081600090555060010161181c565b5090565b6000604051905090565b600080fd5b600080fd5b600073ffffffffffffffffffffffffffffffffffffffff82169050919050565b60006118778261184c565b9050919050565b6118878161186c565b811461189257600080fd5b50565b6000813590506118a48161187e565b92915050565b6000602082840312156118c0576118bf611842565b5b60006118ce84828501611895565b91505092915050565b600081519050919050565b600082825260208201905092915050565b60005b838110156119115780820151818401526020810190506118f6565b83811115611920576000848401525b50505050565b6000601f19601f8301169050919050565b6000611942826118d7565b61194c81856118e2565b935061195c8185602086016118f3565b61196581611926565b840191505092915050565b600061ffff82169050919050565b61198781611970565b82525050565b6000819050919050565b6119a08161198d565b82525050565b60008115159050919050565b6119bb816119a6565b82525050565b600060e08301600083015184820360008601526119de8282611937565b91505060208301516119f3602086018261197e565b5060408301518482036040860152611a0b8282611937565b9150506060830151611a206060860182611997565b5060808301518482036080860152611a388282611937565b91505060a0830151611a4d60a086018261197e565b5060c0830151611a6060c08601826119b2565b508091505092915050565b60006020820190508181036000830152611a8581846119c1565b905092915050565b600080fd5b600080fd5b7f4e487b7100000000000000000000000000000000000000000000000000000000600052604160045260246000fd5b611acf82611926565b810181811067ffffffffffffffff82111715611aee57611aed611a97565b5b80604052505050565b6000611b01611838565b9050611b0d8282611ac6565b919050565b600067ffffffffffffffff821115611b2d57611b2c611a97565b5b611b3682611926565b9050602081019050919050565b82818337600083830152505050565b6000611b65611b6084611b12565b611af7565b905082815260208101848484011115611b8157611b80611a92565b5b611b8c848285611b43565b509392505050565b600082601f830112611ba957611ba8611a8d565b5b8135611bb9848260208601611b52565b91505092915050565b60008060408385031215611bd957611bd8611842565b5b6000611be785828601611895565b925050602083013567ffffffffffffffff811115611c0857611c07611847565b5b611c1485828601611b94565b9150509250929050565b611c278161198d565b82525050565b6000602082019050611c426000830184611c1e565b92915050565b611c5181611970565b8114611c5c57600080fd5b50565b600081359050611c6e81611c48565b92915050565b611c7d8161198d565b8114611c8857600080fd5b50565b600081359050611c9a81611c74565b92915050565b60008060008060008060c08789031215611cbd57611cbc611842565b5b600087013567ffffffffffffffff811115611cdb57611cda611847565b5b611ce789828a01611b94565b9650506020611cf889828a01611c5f565b955050604087013567ffffffffffffffff811115611d1957611d18611847565b5b611d2589828a01611b94565b9450506060611d3689828a01611c8b565b935050608087013567ffffffffffffffff811115611d5757611d56611847565b5b611d6389828a01611b94565b92505060a0611d7489828a01611c5f565b9150509295509295509295565b600080600080600080600060e0888a031215611da057611d9f611842565b5b6000611dae8a828b01611895565b975050602088013567ffffffffffffffff811115611dcf57611dce611847565b5b611ddb8a828b01611b94565b9650506040611dec8a828b01611c5f565b955050606088013567ffffffffffffffff811115611e0d57611e0c611847565b5b611e198a828b01611b94565b9450506080611e2a8a828b01611c8b565b93505060a088013567ffffffffffffffff811115611e4b57611e4a611847565b5b611e578a828b01611b94565b92505060c0611e688a828b01611c5f565b91505092959891949750929550565b600082825260208201905092915050565b6000611e93826118d7565b611e9d8185611e77565b9350611ead8185602086016118f3565b611eb681611926565b840191505092915050565b60006020820190508181036000830152611edb8184611e88565b905092915050565b600060208284031215611ef957611ef8611842565b5b6000611f0784828501611c8b565b91505092915050565b611f198161186c565b82525050565b6000602082019050611f346000830184611f10565b92915050565b60008060408385031215611f5157611f50611842565b5b6000611f5f85828601611895565b9250506020611f7085828601611c8b565b9150509250929050565b7f4e487b7100000000000000000000000000000000000000000000000000000000600052602260045260246000fd5b60006002820490506001821680611fc157607f821691505b60208210811415611fd557611fd4611f7a565b5b50919050565b600081905092915050565b6000611ff1826118d7565b611ffb8185611fdb565b935061200b8185602086016118f3565b80840191505092915050565b60006120238284611fe6565b915081905092915050565b7f4e487b7100000000000000000000000000000000000000000000000000000000600052601160045260246000fd5b60006120688261198d565b91506120738361198d565b9250827fffffffffffffffffffffffffffffffffffffffffffffffffffffffffffffffff038211156120a8576120a761202e565b5b828201905092915050565b7f4e487b7100000000000000000000000000000000000000000000000000000000600052603260045260246000fd5b60008190508160005260206000209050919050565b6000815461210481611fa9565b61210e8186611fdb565b94506001821660008114612129576001811461213a5761216d565b60ff1983168652818601935061216d565b612143856120e2565b60005b8381101561216557815481890152600182019150602081019050612146565b838801955050505b50505092915050565b600061218282846120f7565b915081905092915050565b600061219882611970565b915061ffff8214156121ad576121ac61202e565b5b600182019050919050565b60006121c38261198d565b91506121ce8361198d565b9250828210156121e1576121e061202e565b5b828203905092915050565b60006121f78261198d565b91507fffffffffffffffffffffffffffffffffffffffffffffffffffffffffffffffff82141561222a5761222961202e565b5b60018201905091905056fea2646970667358221220201c1454a093c5673a37a75d2ee7c6281219d009d105327391913fb73164ced664736f6c634300080b0033","opcodes":"PUSH1 0xA0 PUSH1 0x40 MSTORE PUSH1 0x0 DUP1 SSTORE PUSH1 0x0 PUSH1 0x1 SSTORE PUSH1 0x0 PUSH1 0x2 SSTORE PUSH1 0x0 PUSH1 0x3 SSTORE PUSH1 0x0 PUSH1 0x9 SSTORE PUSH1 0x0 PUSH1 0xA SSTORE PUSH1 0x40 MLOAD DUP1 PUSH1 0x80 ADD PUSH1 0x40 MSTORE DUP1 PUSH1 0x40 MLOAD DUP1 PUSH1 0x40 ADD PUSH1 0x40 MSTORE DUP1 PUSH1 0x9 DUP2 MSTORE PUSH1 0x20 ADD PUSH32 0x416D697420736861680000000000000000000000000000000000000000000000 DUP2 MSTORE POP DUP2 MSTORE PUSH1 0x20 ADD PUSH1 0x40 MLOAD DUP1 PUSH1 0x40 ADD PUSH1 0x40 MSTORE DUP1 PUSH1 0xC DUP2 MSTORE PUSH1 0x20 ADD PUSH32 0x526168756C2067616E6468690000000000000000000000000000000000000000 DUP2 MSTORE POP DUP2 MSTORE PUSH1 0x20 ADD PUSH1 0x40 MLOAD DUP1 PUSH1 0x40 ADD PUSH1 0x40 MSTORE DUP1 PUSH1 0xF DUP2 MSTORE PUSH1 0x20 ADD PUSH32 0x4D616D6174612062616E61726765650000000000000000000000000000000000 DUP2 MSTORE POP DUP2 MSTORE PUSH1 0x20 ADD PUSH1 0x40 MLOAD DUP1 PUSH1 0x40 ADD PUSH1 0x40 MSTORE DUP1 PUSH1 0x10 DUP2 MSTORE PUSH1 0x20 ADD PUSH32 0x417276696E64204B656A61726977616C00000000000000000000000000000000 DUP2 MSTORE POP DUP2 MSTORE POP PUSH1 0xB SWAP1 PUSH1 0x4 PUSH3 0x128 SWAP3 SWAP2 SWAP1 PUSH3 0x197 JUMP JUMPDEST POP CALLVALUE DUP1 ISZERO PUSH3 0x136 JUMPI PUSH1 0x0 DUP1 REVERT JUMPDEST POP PUSH1 0x40 MLOAD PUSH3 0x2697 CODESIZE SUB DUP1 PUSH3 0x2697 DUP4 CODECOPY DUP2 DUP2 ADD PUSH1 0x40 MSTORE DUP2 ADD SWAP1 PUSH3 0x15C SWAP2 SWAP1 PUSH3 0x379 JUMP JUMPDEST DUP1 PUSH20 0xFFFFFFFFFFFFFFFFFFFFFFFFFFFFFFFFFFFFFFFF AND PUSH1 0x80 DUP2 PUSH20 0xFFFFFFFFFFFFFFFFFFFFFFFFFFFFFFFFFFFFFFFF AND DUP2 MSTORE POP POP POP PUSH3 0x410 JUMP JUMPDEST DUP3 PUSH1 0x4 DUP2 ADD SWAP3 DUP3 ISZERO PUSH3 0x1DE JUMPI SWAP2 PUSH1 0x20 MUL DUP3 ADD JUMPDEST DUP3 DUP2 GT ISZERO PUSH3 0x1DD JUMPI DUP3 MLOAD DUP3 SWAP1 DUP1 MLOAD SWAP1 PUSH1 0x20 ADD SWAP1 PUSH3 0x1CC SWAP3 SWAP2 SWAP1 PUSH3 0x1F1 JUMP JUMPDEST POP SWAP2 PUSH1 0x20 ADD SWAP2 SWAP1 PUSH1 0x1 ADD SWAP1 PUSH3 0x1AB JUMP JUMPDEST JUMPDEST POP SWAP1 POP PUSH3 0x1ED SWAP2 SWAP1 PUSH3 0x282 JUMP JUMPDEST POP SWAP1 JUMP JUMPDEST DUP3 DUP1 SLOAD PUSH3 0x1FF SWAP1 PUSH3 0x3DA JUMP JUMPDEST SWAP1 PUSH1 0x0 MSTORE PUSH1 0x20 PUSH1 0x0 KECCAK256 SWAP1 PUSH1 0x1F ADD PUSH1 0x20 SWAP1 DIV DUP2 ADD SWAP3 DUP3 PUSH3 0x223 JUMPI PUSH1 0x0 DUP6 SSTORE PUSH3 0x26F JUMP JUMPDEST DUP3 PUSH1 0x1F LT PUSH3 0x23E JUMPI DUP1 MLOAD PUSH1 0xFF NOT AND DUP4 DUP1 ADD OR DUP6 SSTORE PUSH3 0x26F JUMP JUMPDEST DUP3 DUP1 ADD PUSH1 0x1 ADD DUP6 SSTORE DUP3 ISZERO PUSH3 0x26F JUMPI SWAP2 DUP3 ADD JUMPDEST DUP3 DUP2 GT ISZERO PUSH3 0x26E JUMPI DUP3 MLOAD DUP3 SSTORE SWAP2 PUSH1 0x20 ADD SWAP2 SWAP1 PUSH1 0x1 ADD SWAP1 PUSH3 0x251 JUMP JUMPDEST JUMPDEST POP SWAP1 POP PUSH3 0x27E SWAP2 SWAP1 PUSH3 0x2AA JUMP JUMPDEST POP SWAP1 JUMP JUMPDEST JUMPDEST DUP1 DUP3 GT ISZERO PUSH3 0x2A6 JUMPI PUSH1 0x0 DUP2 DUP2 PUSH3 0x29C SWAP2 SWAP1 PUSH3 0x2C9 JUMP JUMPDEST POP PUSH1 0x1 ADD PUSH3 0x283 JUMP JUMPDEST POP SWAP1 JUMP JUMPDEST JUMPDEST DUP1 DUP3 GT ISZERO PUSH3 0x2C5 JUMPI PUSH1 0x0 DUP2 PUSH1 0x0 SWAP1 SSTORE POP PUSH1 0x1 ADD PUSH3 0x2AB JUMP JUMPDEST POP SWAP1 JUMP JUMPDEST POP DUP1 SLOAD PUSH3 0x2D7 SWAP1 PUSH3 0x3DA JUMP JUMPDEST PUSH1 0x0 DUP3 SSTORE DUP1 PUSH1 0x1F LT PUSH3 0x2EB JUMPI POP PUSH3 0x30C JUMP JUMPDEST PUSH1 0x1F ADD PUSH1 0x20 SWAP1 DIV SWAP1 PUSH1 0x0 MSTORE PUSH1 0x20 PUSH1 0x0 KECCAK256 SWAP1 DUP2 ADD SWAP1 PUSH3 0x30B SWAP2 SWAP1 PUSH3 0x2AA JUMP JUMPDEST JUMPDEST POP JUMP JUMPDEST PUSH1 0x0 DUP1 REVERT JUMPDEST PUSH1 0x0 PUSH20 0xFFFFFFFFFFFFFFFFFFFFFFFFFFFFFFFFFFFFFFFF DUP3 AND SWAP1 POP SWAP2 SWAP1 POP JUMP JUMPDEST PUSH1 0x0 PUSH3 0x341 DUP3 PUSH3 0x314 JUMP JUMPDEST SWAP1 POP SWAP2 SWAP1 POP JUMP JUMPDEST PUSH3 0x353 DUP2 PUSH3 0x334 JUMP JUMPDEST DUP2 EQ PUSH3 0x35F JUMPI PUSH1 0x0 DUP1 REVERT JUMPDEST POP JUMP JUMPDEST PUSH1 0x0 DUP2 MLOAD SWAP1 POP PUSH3 0x373 DUP2 PUSH3 0x348 JUMP JUMPDEST SWAP3 SWAP2 POP POP JUMP JUMPDEST PUSH1 0x0 PUSH1 0x20 DUP3 DUP5 SUB SLT ISZERO PUSH3 0x392 JUMPI PUSH3 0x391 PUSH3 0x30F JUMP JUMPDEST JUMPDEST PUSH1 0x0 PUSH3 0x3A2 DUP5 DUP3 DUP6 ADD PUSH3 0x362 JUMP JUMPDEST SWAP2 POP POP SWAP3 SWAP2 POP POP JUMP JUMPDEST PUSH32 0x4E487B7100000000000000000000000000000000000000000000000000000000 PUSH1 0x0 MSTORE PUSH1 0x22 PUSH1 0x4 MSTORE PUSH1 0x24 PUSH1 0x0 REVERT JUMPDEST PUSH1 0x0 PUSH1 0x2 DUP3 DIV SWAP1 POP PUSH1 0x1 DUP3 AND DUP1 PUSH3 0x3F3 JUMPI PUSH1 0x7F DUP3 AND SWAP2 POP JUMPDEST PUSH1 0x20 DUP3 LT DUP2 EQ ISZERO PUSH3 0x40A JUMPI PUSH3 0x409 PUSH3 0x3AB JUMP JUMPDEST JUMPDEST POP SWAP2 SWAP1 POP JUMP JUMPDEST PUSH1 0x80 MLOAD PUSH2 0x226B PUSH3 0x42C PUSH1 0x0 CODECOPY PUSH1 0x0 PUSH2 0xC7F ADD MSTORE PUSH2 0x226B PUSH1 0x0 RETURN INVALID PUSH1 0x80 PUSH1 0x40 MSTORE CALLVALUE DUP1 ISZERO PUSH2 0x10 JUMPI PUSH1 0x0 DUP1 REVERT JUMPDEST POP PUSH1 0x4 CALLDATASIZE LT PUSH2 0xA9 JUMPI PUSH1 0x0 CALLDATALOAD PUSH1 0xE0 SHR DUP1 PUSH4 0x6A9B8805 GT PUSH2 0x71 JUMPI DUP1 PUSH4 0x6A9B8805 EQ PUSH2 0x150 JUMPI DUP1 PUSH4 0x7D0E540B EQ PUSH2 0x15A JUMPI DUP1 PUSH4 0x9C2050E5 EQ PUSH2 0x178 JUMPI DUP1 PUSH4 0xB7E03264 EQ PUSH2 0x1A8 JUMPI DUP1 PUSH4 0xDDBBEFF0 EQ PUSH2 0x1C6 JUMPI DUP1 PUSH4 0xEA6FB131 EQ PUSH2 0x1E4 JUMPI PUSH2 0xA9 JUMP JUMPDEST DUP1 PUSH4 0xFC1AB0C EQ PUSH2 0xAE JUMPI DUP1 PUSH4 0x2A20A300 EQ PUSH2 0xDE JUMPI DUP1 PUSH4 0x428DD1E2 EQ PUSH2 0xFA JUMPI DUP1 PUSH4 0x589E2B74 EQ PUSH2 0x118 JUMPI DUP1 PUSH4 0x5FA20A47 EQ PUSH2 0x134 JUMPI JUMPDEST PUSH1 0x0 DUP1 REVERT JUMPDEST PUSH2 0xC8 PUSH1 0x4 DUP1 CALLDATASIZE SUB DUP2 ADD SWAP1 PUSH2 0xC3 SWAP2 SWAP1 PUSH2 0x18AA JUMP JUMPDEST PUSH2 0x200 JUMP JUMPDEST PUSH1 0x40 MLOAD PUSH2 0xD5 SWAP2 SWAP1 PUSH2 0x1A6B JUMP JUMPDEST PUSH1 0x40 MLOAD DUP1 SWAP2 SUB SWAP1 RETURN JUMPDEST PUSH2 0xF8 PUSH1 0x4 DUP1 CALLDATASIZE SUB DUP2 ADD SWAP1 PUSH2 0xF3 SWAP2 SWAP1 PUSH2 0x1BC2 JUMP JUMPDEST PUSH2 0x4FF JUMP JUMPDEST STOP JUMPDEST PUSH2 0x102 PUSH2 0x64E JUMP JUMPDEST PUSH1 0x40 MLOAD PUSH2 0x10F SWAP2 SWAP1 PUSH2 0x1C2D JUMP JUMPDEST PUSH1 0x40 MLOAD DUP1 SWAP2 SUB SWAP1 RETURN JUMPDEST PUSH2 0x132 PUSH1 0x4 DUP1 CALLDATASIZE SUB DUP2 ADD SWAP1 PUSH2 0x12D SWAP2 SWAP1 PUSH2 0x1CA0 JUMP JUMPDEST PUSH2 0x658 JUMP JUMPDEST STOP JUMPDEST PUSH2 0x14E PUSH1 0x4 DUP1 CALLDATASIZE SUB DUP2 ADD SWAP1 PUSH2 0x149 SWAP2 SWAP1 PUSH2 0x1D81 JUMP JUMPDEST PUSH2 0x903 JUMP JUMPDEST STOP JUMPDEST PUSH2 0x158 PUSH2 0xC7D JUMP JUMPDEST STOP JUMPDEST PUSH2 0x162 PUSH2 0xF9C JUMP JUMPDEST PUSH1 0x40 MLOAD PUSH2 0x16F SWAP2 SWAP1 PUSH2 0x1EC1 JUMP JUMPDEST PUSH1 0x40 MLOAD DUP1 SWAP2 SUB SWAP1 RETURN JUMPDEST PUSH2 0x192 PUSH1 0x4 DUP1 CALLDATASIZE SUB DUP2 ADD SWAP1 PUSH2 0x18D SWAP2 SWAP1 PUSH2 0x1EE3 JUMP JUMPDEST PUSH2 0xFD9 JUMP JUMPDEST PUSH1 0x40 MLOAD PUSH2 0x19F SWAP2 SWAP1 PUSH2 0x1F1F JUMP JUMPDEST PUSH1 0x40 MLOAD DUP1 SWAP2 SUB SWAP1 RETURN JUMPDEST PUSH2 0x1B0 PUSH2 0x1018 JUMP JUMPDEST PUSH1 0x40 MLOAD PUSH2 0x1BD SWAP2 SWAP1 PUSH2 0x1EC1 JUMP JUMPDEST PUSH1 0x40 MLOAD DUP1 SWAP2 SUB SWAP1 RETURN JUMPDEST PUSH2 0x1CE PUSH2 0x10E5 JUMP JUMPDEST PUSH1 0x40 MLOAD PUSH2 0x1DB SWAP2 SWAP1 PUSH2 0x1C2D JUMP JUMPDEST PUSH1 0x40 MLOAD DUP1 SWAP2 SUB SWAP1 RETURN JUMPDEST PUSH2 0x1FE PUSH1 0x4 DUP1 CALLDATASIZE SUB DUP2 ADD SWAP1 PUSH2 0x1F9 SWAP2 SWAP1 PUSH2 0x1F3A JUMP JUMPDEST PUSH2 0x1104 JUMP JUMPDEST STOP JUMPDEST PUSH2 0x208 PUSH2 0x1681 JUMP JUMPDEST DUP2 PUSH1 0x7 PUSH1 0x0 DUP3 PUSH20 0xFFFFFFFFFFFFFFFFFFFFFFFFFFFFFFFFFFFFFFFF AND PUSH20 0xFFFFFFFFFFFFFFFFFFFFFFFFFFFFFFFFFFFFFFFF AND DUP2 MSTORE PUSH1 0x20 ADD SWAP1 DUP2 MSTORE PUSH1 0x20 ADD PUSH1 0x0 KECCAK256 PUSH1 0x0 SWAP1 SLOAD SWAP1 PUSH2 0x100 EXP SWAP1 DIV PUSH1 0xFF AND PUSH2 0x28C JUMPI PUSH1 0x40 MLOAD PUSH32 0x1B99D2EF00000000000000000000000000000000000000000000000000000000 DUP2 MSTORE PUSH1 0x4 ADD PUSH1 0x40 MLOAD DUP1 SWAP2 SUB SWAP1 REVERT JUMPDEST PUSH1 0x0 PUSH1 0x5 PUSH1 0x0 DUP6 PUSH20 0xFFFFFFFFFFFFFFFFFFFFFFFFFFFFFFFFFFFFFFFF AND PUSH20 0xFFFFFFFFFFFFFFFFFFFFFFFFFFFFFFFFFFFFFFFF AND DUP2 MSTORE PUSH1 0x20 ADD SWAP1 DUP2 MSTORE PUSH1 0x20 ADD PUSH1 0x0 KECCAK256 PUSH1 0x40 MLOAD DUP1 PUSH1 0xE0 ADD PUSH1 0x40 MSTORE SWAP1 DUP2 PUSH1 0x0 DUP3 ADD DUP1 SLOAD PUSH2 0x2E8 SWAP1 PUSH2 0x1FA9 JUMP JUMPDEST DUP1 PUSH1 0x1F ADD PUSH1 0x20 DUP1 SWAP2 DIV MUL PUSH1 0x20 ADD PUSH1 0x40 MLOAD SWAP1 DUP2 ADD PUSH1 0x40 MSTORE DUP1 SWAP3 SWAP2 SWAP1 DUP2 DUP2 MSTORE PUSH1 0x20 ADD DUP3 DUP1 SLOAD PUSH2 0x314 SWAP1 PUSH2 0x1FA9 JUMP JUMPDEST DUP1 ISZERO PUSH2 0x361 JUMPI DUP1 PUSH1 0x1F LT PUSH2 0x336 JUMPI PUSH2 0x100 DUP1 DUP4 SLOAD DIV MUL DUP4 MSTORE SWAP2 PUSH1 0x20 ADD SWAP2 PUSH2 0x361 JUMP JUMPDEST DUP3 ADD SWAP2 SWAP1 PUSH1 0x0 MSTORE PUSH1 0x20 PUSH1 0x0 KECCAK256 SWAP1 JUMPDEST DUP2 SLOAD DUP2 MSTORE SWAP1 PUSH1 0x1 ADD SWAP1 PUSH1 0x20 ADD DUP1 DUP4 GT PUSH2 0x344 JUMPI DUP3 SWAP1 SUB PUSH1 0x1F AND DUP3 ADD SWAP2 JUMPDEST POP POP POP POP POP DUP2 MSTORE PUSH1 0x20 ADD PUSH1 0x1 DUP3 ADD PUSH1 0x0 SWAP1 SLOAD SWAP1 PUSH2 0x100 EXP SWAP1 DIV PUSH2 0xFFFF AND PUSH2 0xFFFF AND PUSH2 0xFFFF AND DUP2 MSTORE PUSH1 0x20 ADD PUSH1 0x2 DUP3 ADD DUP1 SLOAD PUSH2 0x39A SWAP1 PUSH2 0x1FA9 JUMP JUMPDEST DUP1 PUSH1 0x1F ADD PUSH1 0x20 DUP1 SWAP2 DIV MUL PUSH1 0x20 ADD PUSH1 0x40 MLOAD SWAP1 DUP2 ADD PUSH1 0x40 MSTORE DUP1 SWAP3 SWAP2 SWAP1 DUP2 DUP2 MSTORE PUSH1 0x20 ADD DUP3 DUP1 SLOAD PUSH2 0x3C6 SWAP1 PUSH2 0x1FA9 JUMP JUMPDEST DUP1 ISZERO PUSH2 0x413 JUMPI DUP1 PUSH1 0x1F LT PUSH2 0x3E8 JUMPI PUSH2 0x100 DUP1 DUP4 SLOAD DIV MUL DUP4 MSTORE SWAP2 PUSH1 0x20 ADD SWAP2 PUSH2 0x413 JUMP JUMPDEST DUP3 ADD SWAP2 SWAP1 PUSH1 0x0 MSTORE PUSH1 0x20 PUSH1 0x0 KECCAK256 SWAP1 JUMPDEST DUP2 SLOAD DUP2 MSTORE SWAP1 PUSH1 0x1 ADD SWAP1 PUSH1 0x20 ADD DUP1 DUP4 GT PUSH2 0x3F6 JUMPI DUP3 SWAP1 SUB PUSH1 0x1F AND DUP3 ADD SWAP2 JUMPDEST POP POP POP POP POP DUP2 MSTORE PUSH1 0x20 ADD PUSH1 0x3 DUP3 ADD SLOAD DUP2 MSTORE PUSH1 0x20 ADD PUSH1 0x4 DUP3 ADD DUP1 SLOAD PUSH2 0x436 SWAP1 PUSH2 0x1FA9 JUMP JUMPDEST DUP1 PUSH1 0x1F ADD PUSH1 0x20 DUP1 SWAP2 DIV MUL PUSH1 0x20 ADD PUSH1 0x40 MLOAD SWAP1 DUP2 ADD PUSH1 0x40 MSTORE DUP1 SWAP3 SWAP2 SWAP1 DUP2 DUP2 MSTORE PUSH1 0x20 ADD DUP3 DUP1 SLOAD PUSH2 0x462 SWAP1 PUSH2 0x1FA9 JUMP JUMPDEST DUP1 ISZERO PUSH2 0x4AF JUMPI DUP1 PUSH1 0x1F LT PUSH2 0x484 JUMPI PUSH2 0x100 DUP1 DUP4 SLOAD DIV MUL DUP4 MSTORE SWAP2 PUSH1 0x20 ADD SWAP2 PUSH2 0x4AF JUMP JUMPDEST DUP3 ADD SWAP2 SWAP1 PUSH1 0x0 MSTORE PUSH1 0x20 PUSH1 0x0 KECCAK256 SWAP1 JUMPDEST DUP2 SLOAD DUP2 MSTORE SWAP1 PUSH1 0x1 ADD SWAP1 PUSH1 0x20 ADD DUP1 DUP4 GT PUSH2 0x492 JUMPI DUP3 SWAP1 SUB PUSH1 0x1F AND DUP3 ADD SWAP2 JUMPDEST POP POP POP POP POP DUP2 MSTORE PUSH1 0x20 ADD PUSH1 0x5 DUP3 ADD PUSH1 0x0 SWAP1 SLOAD SWAP1 PUSH2 0x100 EXP SWAP1 DIV PUSH2 0xFFFF AND PUSH2 0xFFFF AND PUSH2 0xFFFF AND DUP2 MSTORE PUSH1 0x20 ADD PUSH1 0x5 DUP3 ADD PUSH1 0x2 SWAP1 SLOAD SWAP1 PUSH2 0x100 EXP SWAP1 DIV PUSH1 0xFF AND ISZERO ISZERO ISZERO ISZERO DUP2 MSTORE POP POP SWAP1 POP DUP1 SWAP3 POP POP POP SWAP2 SWAP1 POP JUMP JUMPDEST DUP2 PUSH1 0x1 ISZERO ISZERO PUSH1 0x5 PUSH1 0x0 DUP4 PUSH20 0xFFFFFFFFFFFFFFFFFFFFFFFFFFFFFFFFFFFFFFFF AND PUSH20 0xFFFFFFFFFFFFFFFFFFFFFFFFFFFFFFFFFFFFFFFF AND DUP2 MSTORE PUSH1 0x20 ADD SWAP1 DUP2 MSTORE PUSH1 0x20 ADD PUSH1 0x0 KECCAK256 PUSH1 0x5 ADD PUSH1 0x2 SWAP1 SLOAD SWAP1 PUSH2 0x100 EXP SWAP1 DIV PUSH1 0xFF AND ISZERO ISZERO EQ ISZERO PUSH2 0x58E JUMPI PUSH1 0x40 MLOAD PUSH32 0x10A092E600000000000000000000000000000000000000000000000000000000 DUP2 MSTORE PUSH1 0x4 ADD PUSH1 0x40 MLOAD DUP1 SWAP2 SUB SWAP1 REVERT JUMPDEST DUP3 PUSH1 0x7 PUSH1 0x0 DUP3 PUSH20 0xFFFFFFFFFFFFFFFFFFFFFFFFFFFFFFFFFFFFFFFF AND PUSH20 0xFFFFFFFFFFFFFFFFFFFFFFFFFFFFFFFFFFFFFFFF AND DUP2 MSTORE PUSH1 0x20 ADD SWAP1 DUP2 MSTORE PUSH1 0x20 ADD PUSH1 0x0 KECCAK256 PUSH1 0x0 SWAP1 SLOAD SWAP1 PUSH2 0x100 EXP SWAP1 DIV PUSH1 0xFF AND PUSH2 0x612 JUMPI PUSH1 0x40 MLOAD PUSH32 0x1B99D2EF00000000000000000000000000000000000000000000000000000000 DUP2 MSTORE PUSH1 0x4 ADD PUSH1 0x40 MLOAD DUP1 SWAP2 SUB SWAP1 REVERT JUMPDEST PUSH1 0x1 PUSH1 0x6 DUP5 PUSH1 0x40 MLOAD PUSH2 0x624 SWAP2 SWAP1 PUSH2 0x2017 JUMP JUMPDEST SWAP1 DUP2 MSTORE PUSH1 0x20 ADD PUSH1 0x40 MLOAD DUP1 SWAP2 SUB SWAP1 KECCAK256 PUSH1 0x0 DUP3 DUP3 SLOAD PUSH2 0x641 SWAP2 SWAP1 PUSH2 0x205D JUMP JUMPDEST SWAP3 POP POP DUP2 SWAP1 SSTORE POP POP POP POP POP JUMP JUMPDEST PUSH1 0x0 PUSH1 0x9 SLOAD SWAP1 POP SWAP1 JUMP JUMPDEST DUP5 PUSH1 0x12 DUP2 PUSH2 0xFFFF AND LT ISZERO PUSH2 0x698 JUMPI PUSH1 0x40 MLOAD PUSH32 0x430DBC5D00000000000000000000000000000000000000000000000000000000 DUP2 MSTORE PUSH1 0x4 ADD PUSH1 0x40 MLOAD DUP1 SWAP2 SUB SWAP1 REVERT JUMPDEST PUSH1 0x0 PUSH1 0x40 MLOAD DUP1 PUSH1 0xE0 ADD PUSH1 0x40 MSTORE DUP1 DUP10 DUP2 MSTORE PUSH1 0x20 ADD DUP9 PUSH2 0xFFFF AND DUP2 MSTORE PUSH1 0x20 ADD DUP8 DUP2 MSTORE PUSH1 0x20 ADD DUP7 DUP2 MSTORE PUSH1 0x20 ADD DUP6 DUP2 MSTORE PUSH1 0x20 ADD DUP5 PUSH2 0xFFFF AND DUP2 MSTORE PUSH1 0x20 ADD PUSH1 0x0 ISZERO ISZERO DUP2 MSTORE POP SWAP1 POP DUP1 PUSH1 0x5 PUSH1 0x0 CALLER PUSH20 0xFFFFFFFFFFFFFFFFFFFFFFFFFFFFFFFFFFFFFFFF AND PUSH20 0xFFFFFFFFFFFFFFFFFFFFFFFFFFFFFFFFFFFFFFFF AND DUP2 MSTORE PUSH1 0x20 ADD SWAP1 DUP2 MSTORE PUSH1 0x20 ADD PUSH1 0x0 KECCAK256 PUSH1 0x0 DUP3 ADD MLOAD DUP2 PUSH1 0x0 ADD SWAP1 DUP1 MLOAD SWAP1 PUSH1 0x20 ADD SWAP1 PUSH2 0x736 SWAP3 SWAP2 SWAP1 PUSH2 0x16C8 JUMP JUMPDEST POP PUSH1 0x20 DUP3 ADD MLOAD DUP2 PUSH1 0x1 ADD PUSH1 0x0 PUSH2 0x100 EXP DUP2 SLOAD DUP2 PUSH2 0xFFFF MUL NOT AND SWAP1 DUP4 PUSH2 0xFFFF AND MUL OR SWAP1 SSTORE POP PUSH1 0x40 DUP3 ADD MLOAD DUP2 PUSH1 0x2 ADD SWAP1 DUP1 MLOAD SWAP1 PUSH1 0x20 ADD SWAP1 PUSH2 0x776 SWAP3 SWAP2 SWAP1 PUSH2 0x16C8 JUMP JUMPDEST POP PUSH1 0x60 DUP3 ADD MLOAD DUP2 PUSH1 0x3 ADD SSTORE PUSH1 0x80 DUP3 ADD MLOAD DUP2 PUSH1 0x4 ADD SWAP1 DUP1 MLOAD SWAP1 PUSH1 0x20 ADD SWAP1 PUSH2 0x79D SWAP3 SWAP2 SWAP1 PUSH2 0x16C8 JUMP JUMPDEST POP PUSH1 0xA0 DUP3 ADD MLOAD DUP2 PUSH1 0x5 ADD PUSH1 0x0 PUSH2 0x100 EXP DUP2 SLOAD DUP2 PUSH2 0xFFFF MUL NOT AND SWAP1 DUP4 PUSH2 0xFFFF AND MUL OR SWAP1 SSTORE POP PUSH1 0xC0 DUP3 ADD MLOAD DUP2 PUSH1 0x5 ADD PUSH1 0x2 PUSH2 0x100 EXP DUP2 SLOAD DUP2 PUSH1 0xFF MUL NOT AND SWAP1 DUP4 ISZERO ISZERO MUL OR SWAP1 SSTORE POP SWAP1 POP POP PUSH1 0x8 CALLER SWAP1 DUP1 PUSH1 0x1 DUP2 SLOAD ADD DUP1 DUP3 SSTORE DUP1 SWAP2 POP POP PUSH1 0x1 SWAP1 SUB SWAP1 PUSH1 0x0 MSTORE PUSH1 0x20 PUSH1 0x0 KECCAK256 ADD PUSH1 0x0 SWAP1 SWAP2 SWAP1 SWAP2 SWAP1 SWAP2 PUSH2 0x100 EXP DUP2 SLOAD DUP2 PUSH20 0xFFFFFFFFFFFFFFFFFFFFFFFFFFFFFFFFFFFFFFFF MUL NOT AND SWAP1 DUP4 PUSH20 0xFFFFFFFFFFFFFFFFFFFFFFFFFFFFFFFFFFFFFFFF AND MUL OR SWAP1 SSTORE POP PUSH1 0x1 PUSH1 0x7 PUSH1 0x0 CALLER PUSH20 0xFFFFFFFFFFFFFFFFFFFFFFFFFFFFFFFFFFFFFFFF AND PUSH20 0xFFFFFFFFFFFFFFFFFFFFFFFFFFFFFFFFFFFFFFFF AND DUP2 MSTORE PUSH1 0x20 ADD SWAP1 DUP2 MSTORE PUSH1 0x20 ADD PUSH1 0x0 KECCAK256 PUSH1 0x0 PUSH2 0x100 EXP DUP2 SLOAD DUP2 PUSH1 0xFF MUL NOT AND SWAP1 DUP4 ISZERO ISZERO MUL OR SWAP1 SSTORE POP DUP4 PUSH1 0x40 MLOAD PUSH2 0x8AD SWAP2 SWAP1 PUSH2 0x2017 JUMP JUMPDEST PUSH1 0x40 MLOAD DUP1 SWAP2 SUB SWAP1 KECCAK256 DUP6 CALLER PUSH20 0xFFFFFFFFFFFFFFFFFFFFFFFFFFFFFFFFFFFFFFFF AND PUSH32 0x169163AB44C39AA80F98CB982DCE8487B9B35A2BBB12A14FB0A895943030B1B1 PUSH1 0x40 MLOAD PUSH1 0x40 MLOAD DUP1 SWAP2 SUB SWAP1 LOG4 POP POP POP POP POP POP POP POP JUMP JUMPDEST DUP5 PUSH1 0x12 DUP2 PUSH2 0xFFFF AND LT ISZERO PUSH2 0x943 JUMPI PUSH1 0x40 MLOAD PUSH32 0x430DBC5D00000000000000000000000000000000000000000000000000000000 DUP2 MSTORE PUSH1 0x4 ADD PUSH1 0x40 MLOAD DUP1 SWAP2 SUB SWAP1 REVERT JUMPDEST CALLER PUSH1 0x7 PUSH1 0x0 DUP3 PUSH20 0xFFFFFFFFFFFFFFFFFFFFFFFFFFFFFFFFFFFFFFFF AND PUSH20 0xFFFFFFFFFFFFFFFFFFFFFFFFFFFFFFFFFFFFFFFF AND DUP2 MSTORE PUSH1 0x20 ADD SWAP1 DUP2 MSTORE PUSH1 0x20 ADD PUSH1 0x0 KECCAK256 PUSH1 0x0 SWAP1 SLOAD SWAP1 PUSH2 0x100 EXP SWAP1 DIV PUSH1 0xFF AND PUSH2 0x9C7 JUMPI PUSH1 0x40 MLOAD PUSH32 0x1B99D2EF00000000000000000000000000000000000000000000000000000000 DUP2 MSTORE PUSH1 0x4 ADD PUSH1 0x40 MLOAD DUP1 SWAP2 SUB SWAP1 REVERT JUMPDEST PUSH1 0x5 PUSH1 0x0 DUP11 PUSH20 0xFFFFFFFFFFFFFFFFFFFFFFFFFFFFFFFFFFFFFFFF AND PUSH20 0xFFFFFFFFFFFFFFFFFFFFFFFFFFFFFFFFFFFFFFFF AND DUP2 MSTORE PUSH1 0x20 ADD SWAP1 DUP2 MSTORE PUSH1 0x20 ADD PUSH1 0x0 KECCAK256 PUSH1 0x0 DUP1 DUP3 ADD PUSH1 0x0 PUSH2 0xA17 SWAP2 SWAP1 PUSH2 0x174E JUMP JUMPDEST PUSH1 0x1 DUP3 ADD PUSH1 0x0 PUSH2 0x100 EXP DUP2 SLOAD SWAP1 PUSH2 0xFFFF MUL NOT AND SWAP1 SSTORE PUSH1 0x2 DUP3 ADD PUSH1 0x0 PUSH2 0xA3C SWAP2 SWAP1 PUSH2 0x174E JUMP JUMPDEST PUSH1 0x3 DUP3 ADD PUSH1 0x0 SWAP1 SSTORE PUSH1 0x4 DUP3 ADD PUSH1 0x0 PUSH2 0xA54 SWAP2 SWAP1 PUSH2 0x174E JUMP JUMPDEST PUSH1 0x5 DUP3 ADD PUSH1 0x0 PUSH2 0x100 EXP DUP2 SLOAD SWAP1 PUSH2 0xFFFF MUL NOT AND SWAP1 SSTORE PUSH1 0x5 DUP3 ADD PUSH1 0x2 PUSH2 0x100 EXP DUP2 SLOAD SWAP1 PUSH1 0xFF MUL NOT AND SWAP1 SSTORE POP POP PUSH1 0x0 PUSH1 0x40 MLOAD DUP1 PUSH1 0xE0 ADD PUSH1 0x40 MSTORE DUP1 DUP11 DUP2 MSTORE PUSH1 0x20 ADD DUP10 PUSH2 0xFFFF AND DUP2 MSTORE PUSH1 0x20 ADD DUP9 DUP2 MSTORE PUSH1 0x20 ADD DUP8 DUP2 MSTORE PUSH1 0x20 ADD DUP7 DUP2 MSTORE PUSH1 0x20 ADD DUP6 PUSH2 0xFFFF AND DUP2 MSTORE PUSH1 0x20 ADD PUSH1 0x0 ISZERO ISZERO DUP2 MSTORE POP SWAP1 POP DUP1 PUSH1 0x5 PUSH1 0x0 DUP13 PUSH20 0xFFFFFFFFFFFFFFFFFFFFFFFFFFFFFFFFFFFFFFFF AND PUSH20 0xFFFFFFFFFFFFFFFFFFFFFFFFFFFFFFFFFFFFFFFF AND DUP2 MSTORE PUSH1 0x20 ADD SWAP1 DUP2 MSTORE PUSH1 0x20 ADD PUSH1 0x0 KECCAK256 PUSH1 0x0 DUP3 ADD MLOAD DUP2 PUSH1 0x0 ADD SWAP1 DUP1 MLOAD SWAP1 PUSH1 0x20 ADD SWAP1 PUSH2 0xB1D SWAP3 SWAP2 SWAP1 PUSH2 0x16C8 JUMP JUMPDEST POP PUSH1 0x20 DUP3 ADD MLOAD DUP2 PUSH1 0x1 ADD PUSH1 0x0 PUSH2 0x100 EXP DUP2 SLOAD DUP2 PUSH2 0xFFFF MUL NOT AND SWAP1 DUP4 PUSH2 0xFFFF AND MUL OR SWAP1 SSTORE POP PUSH1 0x40 DUP3 ADD MLOAD DUP2 PUSH1 0x2 ADD SWAP1 DUP1 MLOAD SWAP1 PUSH1 0x20 ADD SWAP1 PUSH2 0xB5D SWAP3 SWAP2 SWAP1 PUSH2 0x16C8 JUMP JUMPDEST POP PUSH1 0x60 DUP3 ADD MLOAD DUP2 PUSH1 0x3 ADD SSTORE PUSH1 0x80 DUP3 ADD MLOAD DUP2 PUSH1 0x4 ADD SWAP1 DUP1 MLOAD SWAP1 PUSH1 0x20 ADD SWAP1 PUSH2 0xB84 SWAP3 SWAP2 SWAP1 PUSH2 0x16C8 JUMP JUMPDEST POP PUSH1 0xA0 DUP3 ADD MLOAD DUP2 PUSH1 0x5 ADD PUSH1 0x0 PUSH2 0x100 EXP DUP2 SLOAD DUP2 PUSH2 0xFFFF MUL NOT AND SWAP1 DUP4 PUSH2 0xFFFF AND MUL OR SWAP1 SSTORE POP PUSH1 0xC0 DUP3 ADD MLOAD DUP2 PUSH1 0x5 ADD PUSH1 0x2 PUSH2 0x100 EXP DUP2 SLOAD DUP2 PUSH1 0xFF MUL NOT AND SWAP1 DUP4 ISZERO ISZERO MUL OR SWAP1 SSTORE POP SWAP1 POP POP PUSH1 0x8 DUP11 SWAP1 DUP1 PUSH1 0x1 DUP2 SLOAD ADD DUP1 DUP3 SSTORE DUP1 SWAP2 POP POP PUSH1 0x1 SWAP1 SUB SWAP1 PUSH1 0x0 MSTORE PUSH1 0x20 PUSH1 0x0 KECCAK256 ADD PUSH1 0x0 SWAP1 SWAP2 SWAP1 SWAP2 SWAP1 SWAP2 PUSH2 0x100 EXP DUP2 SLOAD DUP2 PUSH20 0xFFFFFFFFFFFFFFFFFFFFFFFFFFFFFFFFFFFFFFFF MUL NOT AND SWAP1 DUP4 PUSH20 0xFFFFFFFFFFFFFFFFFFFFFFFFFFFFFFFFFFFFFFFF AND MUL OR SWAP1 SSTORE POP CALLER PUSH20 0xFFFFFFFFFFFFFFFFFFFFFFFFFFFFFFFFFFFFFFFF AND PUSH32 0x255D49A274951E15BD19E1B7983BBEDE89281E9A32DF803A41F54148C80A51BF PUSH1 0x40 MLOAD PUSH1 0x40 MLOAD DUP1 SWAP2 SUB SWAP1 LOG2 POP POP POP POP POP POP POP POP POP POP JUMP JUMPDEST PUSH32 0x0 PUSH20 0xFFFFFFFFFFFFFFFFFFFFFFFFFFFFFFFFFFFFFFFF AND CALLER PUSH20 0xFFFFFFFFFFFFFFFFFFFFFFFFFFFFFFFFFFFFFFFF AND EQ PUSH2 0xD02 JUMPI PUSH1 0x40 MLOAD PUSH32 0xBD817D3700000000000000000000000000000000000000000000000000000000 DUP2 MSTORE PUSH1 0x4 ADD PUSH1 0x40 MLOAD DUP1 SWAP2 SUB SWAP1 REVERT JUMPDEST PUSH1 0x0 PUSH1 0x9 SLOAD GT PUSH2 0xD3D JUMPI PUSH1 0x40 MLOAD PUSH31 0x80ECE400000000000000000000000000000000000000000000000000000000 DUP2 MSTORE PUSH1 0x4 ADD PUSH1 0x40 MLOAD DUP1 SWAP2 SUB SWAP1 REVERT JUMPDEST PUSH1 0x0 JUMPDEST PUSH1 0x8 DUP1 SLOAD SWAP1 POP DUP2 PUSH2 0xFFFF AND LT ISZERO PUSH2 0xEEA JUMPI PUSH1 0x0 PUSH1 0x8 DUP3 PUSH2 0xFFFF AND DUP2 SLOAD DUP2 LT PUSH2 0xD6B JUMPI PUSH2 0xD6A PUSH2 0x20B3 JUMP JUMPDEST JUMPDEST SWAP1 PUSH1 0x0 MSTORE PUSH1 0x20 PUSH1 0x0 KECCAK256 ADD PUSH1 0x0 SWAP1 SLOAD SWAP1 PUSH2 0x100 EXP SWAP1 DIV PUSH20 0xFFFFFFFFFFFFFFFFFFFFFFFFFFFFFFFFFFFFFFFF AND SWAP1 POP PUSH1 0x5 PUSH1 0x0 DUP3 PUSH20 0xFFFFFFFFFFFFFFFFFFFFFFFFFFFFFFFFFFFFFFFF AND PUSH20 0xFFFFFFFFFFFFFFFFFFFFFFFFFFFFFFFFFFFFFFFF AND DUP2 MSTORE PUSH1 0x20 ADD SWAP1 DUP2 MSTORE PUSH1 0x20 ADD PUSH1 0x0 KECCAK256 PUSH1 0x5 ADD PUSH1 0x2 SWAP1 SLOAD SWAP1 PUSH2 0x100 EXP SWAP1 DIV PUSH1 0xFF AND ISZERO PUSH2 0xED6 JUMPI PUSH1 0x6 PUSH1 0xB PUSH1 0x0 PUSH1 0x4 DUP2 LT PUSH2 0xE04 JUMPI PUSH2 0xE03 PUSH2 0x20B3 JUMP JUMPDEST JUMPDEST ADD PUSH1 0x40 MLOAD PUSH2 0xE12 SWAP2 SWAP1 PUSH2 0x2176 JUMP JUMPDEST SWAP1 DUP2 MSTORE PUSH1 0x20 ADD PUSH1 0x40 MLOAD DUP1 SWAP2 SUB SWAP1 KECCAK256 SLOAD PUSH1 0x0 DUP2 SWAP1 SSTORE POP PUSH1 0x6 PUSH1 0xB PUSH1 0x1 PUSH1 0x4 DUP2 LT PUSH2 0xE3E JUMPI PUSH2 0xE3D PUSH2 0x20B3 JUMP JUMPDEST JUMPDEST ADD PUSH1 0x40 MLOAD PUSH2 0xE4C SWAP2 SWAP1 PUSH2 0x2176 JUMP JUMPDEST SWAP1 DUP2 MSTORE PUSH1 0x20 ADD PUSH1 0x40 MLOAD DUP1 SWAP2 SUB SWAP1 KECCAK256 SLOAD PUSH1 0x1 DUP2 SWAP1 SSTORE POP PUSH1 0x6 PUSH1 0xB PUSH1 0x2 PUSH1 0x4 DUP2 LT PUSH2 0xE78 JUMPI PUSH2 0xE77 PUSH2 0x20B3 JUMP JUMPDEST JUMPDEST ADD PUSH1 0x40 MLOAD PUSH2 0xE86 SWAP2 SWAP1 PUSH2 0x2176 JUMP JUMPDEST SWAP1 DUP2 MSTORE PUSH1 0x20 ADD PUSH1 0x40 MLOAD DUP1 SWAP2 SUB SWAP1 KECCAK256 SLOAD PUSH1 0x2 DUP2 SWAP1 SSTORE POP PUSH1 0x6 PUSH1 0xB PUSH1 0x3 PUSH1 0x4 DUP2 LT PUSH2 0xEB2 JUMPI PUSH2 0xEB1 PUSH2 0x20B3 JUMP JUMPDEST JUMPDEST ADD PUSH1 0x40 MLOAD PUSH2 0xEC0 SWAP2 SWAP1 PUSH2 0x2176 JUMP JUMPDEST SWAP1 DUP2 MSTORE PUSH1 0x20 ADD PUSH1 0x40 MLOAD DUP1 SWAP2 SUB SWAP1 KECCAK256 SLOAD PUSH1 0x3 DUP2 SWAP1 SSTORE POP JUMPDEST POP DUP1 DUP1 PUSH2 0xEE2 SWAP1 PUSH2 0x218D JUMP JUMPDEST SWAP2 POP POP PUSH2 0xD40 JUMP JUMPDEST POP PUSH1 0x0 PUSH2 0xF01 PUSH1 0x0 SLOAD PUSH1 0x1 SLOAD PUSH1 0x2 SLOAD PUSH1 0x3 SLOAD PUSH2 0x162D JUMP JUMPDEST SWAP1 POP PUSH1 0x0 JUMPDEST PUSH1 0x4 DUP2 PUSH2 0xFFFF AND LT ISZERO PUSH2 0xF98 JUMPI DUP2 PUSH1 0x6 PUSH1 0xB DUP4 PUSH2 0xFFFF AND PUSH1 0x4 DUP2 LT PUSH2 0xF2E JUMPI PUSH2 0xF2D PUSH2 0x20B3 JUMP JUMPDEST JUMPDEST ADD PUSH1 0x40 MLOAD PUSH2 0xF3C SWAP2 SWAP1 PUSH2 0x2176 JUMP JUMPDEST SWAP1 DUP2 MSTORE PUSH1 0x20 ADD PUSH1 0x40 MLOAD DUP1 SWAP2 SUB SWAP1 KECCAK256 SLOAD EQ ISZERO PUSH2 0xF85 JUMPI PUSH1 0xB DUP2 PUSH2 0xFFFF AND PUSH1 0x4 DUP2 LT PUSH2 0xF69 JUMPI PUSH2 0xF68 PUSH2 0x20B3 JUMP JUMPDEST JUMPDEST ADD PUSH1 0x4 SWAP1 DUP1 SLOAD PUSH2 0xF78 SWAP1 PUSH2 0x1FA9 JUMP JUMPDEST PUSH2 0xF83 SWAP3 SWAP2 SWAP1 PUSH2 0x178E JUMP JUMPDEST POP JUMPDEST DUP1 DUP1 PUSH2 0xF90 SWAP1 PUSH2 0x218D JUMP JUMPDEST SWAP2 POP POP PUSH2 0xF06 JUMP JUMPDEST POP POP JUMP JUMPDEST PUSH1 0x60 PUSH1 0x40 MLOAD DUP1 PUSH1 0x40 ADD PUSH1 0x40 MSTORE DUP1 PUSH1 0xE DUP2 MSTORE PUSH1 0x20 ADD PUSH32 0x676F20666F72206C6F7474657279000000000000000000000000000000000000 DUP2 MSTORE POP SWAP1 POP SWAP1 JUMP JUMPDEST PUSH1 0x8 DUP2 DUP2 SLOAD DUP2 LT PUSH2 0xFE9 JUMPI PUSH1 0x0 DUP1 REVERT JUMPDEST SWAP1 PUSH1 0x0 MSTORE PUSH1 0x20 PUSH1 0x0 KECCAK256 ADD PUSH1 0x0 SWAP2 POP SLOAD SWAP1 PUSH2 0x100 EXP SWAP1 DIV PUSH20 0xFFFFFFFFFFFFFFFFFFFFFFFFFFFFFFFFFFFFFFFF AND DUP2 JUMP JUMPDEST PUSH1 0x60 PUSH1 0x0 PUSH1 0x9 SLOAD GT PUSH2 0x1055 JUMPI PUSH1 0x40 MLOAD PUSH31 0x80ECE400000000000000000000000000000000000000000000000000000000 DUP2 MSTORE PUSH1 0x4 ADD PUSH1 0x40 MLOAD DUP1 SWAP2 SUB SWAP1 REVERT JUMPDEST PUSH1 0x4 DUP1 SLOAD PUSH2 0x1062 SWAP1 PUSH2 0x1FA9 JUMP JUMPDEST DUP1 PUSH1 0x1F ADD PUSH1 0x20 DUP1 SWAP2 DIV MUL PUSH1 0x20 ADD PUSH1 0x40 MLOAD SWAP1 DUP2 ADD PUSH1 0x40 MSTORE DUP1 SWAP3 SWAP2 SWAP1 DUP2 DUP2 MSTORE PUSH1 0x20 ADD DUP3 DUP1 SLOAD PUSH2 0x108E SWAP1 PUSH2 0x1FA9 JUMP JUMPDEST DUP1 ISZERO PUSH2 0x10DB JUMPI DUP1 PUSH1 0x1F LT PUSH2 0x10B0 JUMPI PUSH2 0x100 DUP1 DUP4 SLOAD DIV MUL DUP4 MSTORE SWAP2 PUSH1 0x20 ADD SWAP2 PUSH2 0x10DB JUMP JUMPDEST DUP3 ADD SWAP2 SWAP1 PUSH1 0x0 MSTORE PUSH1 0x20 PUSH1 0x0 KECCAK256 SWAP1 JUMPDEST DUP2 SLOAD DUP2 MSTORE SWAP1 PUSH1 0x1 ADD SWAP1 PUSH1 0x20 ADD DUP1 DUP4 GT PUSH2 0x10BE JUMPI DUP3 SWAP1 SUB PUSH1 0x1F AND DUP3 ADD SWAP2 JUMPDEST POP POP POP POP POP SWAP1 POP SWAP1 JUMP JUMPDEST PUSH1 0x0 DUP1 PUSH1 0x9 SLOAD PUSH1 0x8 DUP1 SLOAD SWAP1 POP PUSH2 0x10FB SWAP2 SWAP1 PUSH2 0x21B8 JUMP JUMPDEST SWAP1 POP DUP1 SWAP2 POP POP SWAP1 JUMP JUMPDEST PUSH1 0x0 PUSH1 0x5 PUSH1 0x0 DUP5 PUSH20 0xFFFFFFFFFFFFFFFFFFFFFFFFFFFFFFFFFFFFFFFF AND PUSH20 0xFFFFFFFFFFFFFFFFFFFFFFFFFFFFFFFFFFFFFFFF AND DUP2 MSTORE PUSH1 0x20 ADD SWAP1 DUP2 MSTORE PUSH1 0x20 ADD PUSH1 0x0 KECCAK256 PUSH1 0x40 MLOAD DUP1 PUSH1 0xE0 ADD PUSH1 0x40 MSTORE SWAP1 DUP2 PUSH1 0x0 DUP3 ADD DUP1 SLOAD PUSH2 0x1160 SWAP1 PUSH2 0x1FA9 JUMP JUMPDEST DUP1 PUSH1 0x1F ADD PUSH1 0x20 DUP1 SWAP2 DIV MUL PUSH1 0x20 ADD PUSH1 0x40 MLOAD SWAP1 DUP2 ADD PUSH1 0x40 MSTORE DUP1 SWAP3 SWAP2 SWAP1 DUP2 DUP2 MSTORE PUSH1 0x20 ADD DUP3 DUP1 SLOAD PUSH2 0x118C SWAP1 PUSH2 0x1FA9 JUMP JUMPDEST DUP1 ISZERO PUSH2 0x11D9 JUMPI DUP1 PUSH1 0x1F LT PUSH2 0x11AE JUMPI PUSH2 0x100 DUP1 DUP4 SLOAD DIV MUL DUP4 MSTORE SWAP2 PUSH1 0x20 ADD SWAP2 PUSH2 0x11D9 JUMP JUMPDEST DUP3 ADD SWAP2 SWAP1 PUSH1 0x0 MSTORE PUSH1 0x20 PUSH1 0x0 KECCAK256 SWAP1 JUMPDEST DUP2 SLOAD DUP2 MSTORE SWAP1 PUSH1 0x1 ADD SWAP1 PUSH1 0x20 ADD DUP1 DUP4 GT PUSH2 0x11BC JUMPI DUP3 SWAP1 SUB PUSH1 0x1F AND DUP3 ADD SWAP2 JUMPDEST POP POP POP POP POP DUP2 MSTORE PUSH1 0x20 ADD PUSH1 0x1 DUP3 ADD PUSH1 0x0 SWAP1 SLOAD SWAP1 PUSH2 0x100 EXP SWAP1 DIV PUSH2 0xFFFF AND PUSH2 0xFFFF AND PUSH2 0xFFFF AND DUP2 MSTORE PUSH1 0x20 ADD PUSH1 0x2 DUP3 ADD DUP1 SLOAD PUSH2 0x1212 SWAP1 PUSH2 0x1FA9 JUMP JUMPDEST DUP1 PUSH1 0x1F ADD PUSH1 0x20 DUP1 SWAP2 DIV MUL PUSH1 0x20 ADD PUSH1 0x40 MLOAD SWAP1 DUP2 ADD PUSH1 0x40 MSTORE DUP1 SWAP3 SWAP2 SWAP1 DUP2 DUP2 MSTORE PUSH1 0x20 ADD DUP3 DUP1 SLOAD PUSH2 0x123E SWAP1 PUSH2 0x1FA9 JUMP JUMPDEST DUP1 ISZERO PUSH2 0x128B JUMPI DUP1 PUSH1 0x1F LT PUSH2 0x1260 JUMPI PUSH2 0x100 DUP1 DUP4 SLOAD DIV MUL DUP4 MSTORE SWAP2 PUSH1 0x20 ADD SWAP2 PUSH2 0x128B JUMP JUMPDEST DUP3 ADD SWAP2 SWAP1 PUSH1 0x0 MSTORE PUSH1 0x20 PUSH1 0x0 KECCAK256 SWAP1 JUMPDEST DUP2 SLOAD DUP2 MSTORE SWAP1 PUSH1 0x1 ADD SWAP1 PUSH1 0x20 ADD DUP1 DUP4 GT PUSH2 0x126E JUMPI DUP3 SWAP1 SUB PUSH1 0x1F AND DUP3 ADD SWAP2 JUMPDEST POP POP POP POP POP DUP2 MSTORE PUSH1 0x20 ADD PUSH1 0x3 DUP3 ADD SLOAD DUP2 MSTORE PUSH1 0x20 ADD PUSH1 0x4 DUP3 ADD DUP1 SLOAD PUSH2 0x12AE SWAP1 PUSH2 0x1FA9 JUMP JUMPDEST DUP1 PUSH1 0x1F ADD PUSH1 0x20 DUP1 SWAP2 DIV MUL PUSH1 0x20 ADD PUSH1 0x40 MLOAD SWAP1 DUP2 ADD PUSH1 0x40 MSTORE DUP1 SWAP3 SWAP2 SWAP1 DUP2 DUP2 MSTORE PUSH1 0x20 ADD DUP3 DUP1 SLOAD PUSH2 0x12DA SWAP1 PUSH2 0x1FA9 JUMP JUMPDEST DUP1 ISZERO PUSH2 0x1327 JUMPI DUP1 PUSH1 0x1F LT PUSH2 0x12FC JUMPI PUSH2 0x100 DUP1 DUP4 SLOAD DIV MUL DUP4 MSTORE SWAP2 PUSH1 0x20 ADD SWAP2 PUSH2 0x1327 JUMP JUMPDEST DUP3 ADD SWAP2 SWAP1 PUSH1 0x0 MSTORE PUSH1 0x20 PUSH1 0x0 KECCAK256 SWAP1 JUMPDEST DUP2 SLOAD DUP2 MSTORE SWAP1 PUSH1 0x1 ADD SWAP1 PUSH1 0x20 ADD DUP1 DUP4 GT PUSH2 0x130A JUMPI DUP3 SWAP1 SUB PUSH1 0x1F AND DUP3 ADD SWAP2 JUMPDEST POP POP POP POP POP DUP2 MSTORE PUSH1 0x20 ADD PUSH1 0x5 DUP3 ADD PUSH1 0x0 SWAP1 SLOAD SWAP1 PUSH2 0x100 EXP SWAP1 DIV PUSH2 0xFFFF AND PUSH2 0xFFFF AND PUSH2 0xFFFF AND DUP2 MSTORE PUSH1 0x20 ADD PUSH1 0x5 DUP3 ADD PUSH1 0x2 SWAP1 SLOAD SWAP1 PUSH2 0x100 EXP SWAP1 DIV PUSH1 0xFF AND ISZERO ISZERO ISZERO ISZERO DUP2 MSTORE POP POP SWAP1 POP DUP2 DUP2 PUSH1 0x60 ADD MLOAD EQ PUSH2 0x13AA JUMPI PUSH1 0x40 MLOAD PUSH32 0x7B4979400000000000000000000000000000000000000000000000000000000 DUP2 MSTORE PUSH1 0x4 ADD PUSH1 0x40 MLOAD DUP1 SWAP2 SUB SWAP1 REVERT JUMPDEST DUP1 PUSH1 0xC0 ADD MLOAD ISZERO PUSH2 0x13E6 JUMPI PUSH1 0x40 MLOAD PUSH32 0x18E3F3B300000000000000000000000000000000000000000000000000000000 DUP2 MSTORE PUSH1 0x4 ADD PUSH1 0x40 MLOAD DUP1 SWAP2 SUB SWAP1 REVERT JUMPDEST PUSH1 0xC8 DUP2 PUSH1 0xA0 ADD MLOAD PUSH2 0xFFFF AND GT DUP1 ISZERO PUSH2 0x1406 JUMPI POP PUSH1 0x64 DUP2 PUSH1 0xA0 ADD MLOAD PUSH2 0xFFFF AND LT JUMPDEST ISZERO PUSH2 0x143D JUMPI PUSH1 0x40 MLOAD PUSH32 0xDF96D29D00000000000000000000000000000000000000000000000000000000 DUP2 MSTORE PUSH1 0x4 ADD PUSH1 0x40 MLOAD DUP1 SWAP2 SUB SWAP1 REVERT JUMPDEST PUSH1 0x1 DUP2 PUSH1 0xC0 ADD SWAP1 ISZERO ISZERO SWAP1 DUP2 ISZERO ISZERO DUP2 MSTORE POP POP PUSH1 0x5 PUSH1 0x0 CALLER PUSH20 0xFFFFFFFFFFFFFFFFFFFFFFFFFFFFFFFFFFFFFFFF AND PUSH20 0xFFFFFFFFFFFFFFFFFFFFFFFFFFFFFFFFFFFFFFFF AND DUP2 MSTORE PUSH1 0x20 ADD SWAP1 DUP2 MSTORE PUSH1 0x20 ADD PUSH1 0x0 KECCAK256 PUSH1 0x0 DUP1 DUP3 ADD PUSH1 0x0 PUSH2 0x149E SWAP2 SWAP1 PUSH2 0x174E JUMP JUMPDEST PUSH1 0x1 DUP3 ADD PUSH1 0x0 PUSH2 0x100 EXP DUP2 SLOAD SWAP1 PUSH2 0xFFFF MUL NOT AND SWAP1 SSTORE PUSH1 0x2 DUP3 ADD PUSH1 0x0 PUSH2 0x14C3 SWAP2 SWAP1 PUSH2 0x174E JUMP JUMPDEST PUSH1 0x3 DUP3 ADD PUSH1 0x0 SWAP1 SSTORE PUSH1 0x4 DUP3 ADD PUSH1 0x0 PUSH2 0x14DB SWAP2 SWAP1 PUSH2 0x174E JUMP JUMPDEST PUSH1 0x5 DUP3 ADD PUSH1 0x0 PUSH2 0x100 EXP DUP2 SLOAD SWAP1 PUSH2 0xFFFF MUL NOT AND SWAP1 SSTORE PUSH1 0x5 DUP3 ADD PUSH1 0x2 PUSH2 0x100 EXP DUP2 SLOAD SWAP1 PUSH1 0xFF MUL NOT AND SWAP1 SSTORE POP POP DUP1 PUSH1 0x5 PUSH1 0x0 CALLER PUSH20 0xFFFFFFFFFFFFFFFFFFFFFFFFFFFFFFFFFFFFFFFF AND PUSH20 0xFFFFFFFFFFFFFFFFFFFFFFFFFFFFFFFFFFFFFFFF AND DUP2 MSTORE PUSH1 0x20 ADD SWAP1 DUP2 MSTORE PUSH1 0x20 ADD PUSH1 0x0 KECCAK256 PUSH1 0x0 DUP3 ADD MLOAD DUP2 PUSH1 0x0 ADD SWAP1 DUP1 MLOAD SWAP1 PUSH1 0x20 ADD SWAP1 PUSH2 0x1562 SWAP3 SWAP2 SWAP1 PUSH2 0x16C8 JUMP JUMPDEST POP PUSH1 0x20 DUP3 ADD MLOAD DUP2 PUSH1 0x1 ADD PUSH1 0x0 PUSH2 0x100 EXP DUP2 SLOAD DUP2 PUSH2 0xFFFF MUL NOT AND SWAP1 DUP4 PUSH2 0xFFFF AND MUL OR SWAP1 SSTORE POP PUSH1 0x40 DUP3 ADD MLOAD DUP2 PUSH1 0x2 ADD SWAP1 DUP1 MLOAD SWAP1 PUSH1 0x20 ADD SWAP1 PUSH2 0x15A2 SWAP3 SWAP2 SWAP1 PUSH2 0x16C8 JUMP JUMPDEST POP PUSH1 0x60 DUP3 ADD MLOAD DUP2 PUSH1 0x3 ADD SSTORE PUSH1 0x80 DUP3 ADD MLOAD DUP2 PUSH1 0x4 ADD SWAP1 DUP1 MLOAD SWAP1 PUSH1 0x20 ADD SWAP1 PUSH2 0x15C9 SWAP3 SWAP2 SWAP1 PUSH2 0x16C8 JUMP JUMPDEST POP PUSH1 0xA0 DUP3 ADD MLOAD DUP2 PUSH1 0x5 ADD PUSH1 0x0 PUSH2 0x100 EXP DUP2 SLOAD DUP2 PUSH2 0xFFFF MUL NOT AND SWAP1 DUP4 PUSH2 0xFFFF AND MUL OR SWAP1 SSTORE POP PUSH1 0xC0 DUP3 ADD MLOAD DUP2 PUSH1 0x5 ADD PUSH1 0x2 PUSH2 0x100 EXP DUP2 SLOAD DUP2 PUSH1 0xFF MUL NOT AND SWAP1 DUP4 ISZERO ISZERO MUL OR SWAP1 SSTORE POP SWAP1 POP POP PUSH1 0x9 PUSH1 0x0 DUP2 SLOAD DUP1 SWAP3 SWAP2 SWAP1 PUSH2 0x1623 SWAP1 PUSH2 0x21EC JUMP JUMPDEST SWAP2 SWAP1 POP SSTORE POP POP POP POP JUMP JUMPDEST PUSH1 0x0 DUP1 PUSH1 0x0 SWAP1 POP PUSH1 0x0 DUP1 DUP7 DUP9 GT ISZERO PUSH2 0x1647 JUMPI DUP8 SWAP3 POP PUSH2 0x164B JUMP JUMPDEST DUP7 SWAP3 POP JUMPDEST DUP5 DUP7 GT ISZERO PUSH2 0x165B JUMPI DUP6 SWAP2 POP PUSH2 0x165F JUMP JUMPDEST DUP5 SWAP2 POP JUMPDEST DUP2 DUP4 GT ISZERO PUSH2 0x166F JUMPI DUP3 SWAP1 POP PUSH2 0x1673 JUMP JUMPDEST DUP2 SWAP1 POP JUMPDEST DUP1 SWAP4 POP POP POP POP SWAP5 SWAP4 POP POP POP POP JUMP JUMPDEST PUSH1 0x40 MLOAD DUP1 PUSH1 0xE0 ADD PUSH1 0x40 MSTORE DUP1 PUSH1 0x60 DUP2 MSTORE PUSH1 0x20 ADD PUSH1 0x0 PUSH2 0xFFFF AND DUP2 MSTORE PUSH1 0x20 ADD PUSH1 0x60 DUP2 MSTORE PUSH1 0x20 ADD PUSH1 0x0 DUP2 MSTORE PUSH1 0x20 ADD PUSH1 0x60 DUP2 MSTORE PUSH1 0x20 ADD PUSH1 0x0 PUSH2 0xFFFF AND DUP2 MSTORE PUSH1 0x20 ADD PUSH1 0x0 ISZERO ISZERO DUP2 MSTORE POP SWAP1 JUMP JUMPDEST DUP3 DUP1 SLOAD PUSH2 0x16D4 SWAP1 PUSH2 0x1FA9 JUMP JUMPDEST SWAP1 PUSH1 0x0 MSTORE PUSH1 0x20 PUSH1 0x0 KECCAK256 SWAP1 PUSH1 0x1F ADD PUSH1 0x20 SWAP1 DIV DUP2 ADD SWAP3 DUP3 PUSH2 0x16F6 JUMPI PUSH1 0x0 DUP6 SSTORE PUSH2 0x173D JUMP JUMPDEST DUP3 PUSH1 0x1F LT PUSH2 0x170F JUMPI DUP1 MLOAD PUSH1 0xFF NOT AND DUP4 DUP1 ADD OR DUP6 SSTORE PUSH2 0x173D JUMP JUMPDEST DUP3 DUP1 ADD PUSH1 0x1 ADD DUP6 SSTORE DUP3 ISZERO PUSH2 0x173D JUMPI SWAP2 DUP3 ADD JUMPDEST DUP3 DUP2 GT ISZERO PUSH2 0x173C JUMPI DUP3 MLOAD DUP3 SSTORE SWAP2 PUSH1 0x20 ADD SWAP2 SWAP1 PUSH1 0x1 ADD SWAP1 PUSH2 0x1721 JUMP JUMPDEST JUMPDEST POP SWAP1 POP PUSH2 0x174A SWAP2 SWAP1 PUSH2 0x181B JUMP JUMPDEST POP SWAP1 JUMP JUMPDEST POP DUP1 SLOAD PUSH2 0x175A SWAP1 PUSH2 0x1FA9 JUMP JUMPDEST PUSH1 0x0 DUP3 SSTORE DUP1 PUSH1 0x1F LT PUSH2 0x176C JUMPI POP PUSH2 0x178B JUMP JUMPDEST PUSH1 0x1F ADD PUSH1 0x20 SWAP1 DIV SWAP1 PUSH1 0x0 MSTORE PUSH1 0x20 PUSH1 0x0 KECCAK256 SWAP1 DUP2 ADD SWAP1 PUSH2 0x178A SWAP2 SWAP1 PUSH2 0x181B JUMP JUMPDEST JUMPDEST POP JUMP JUMPDEST DUP3 DUP1 SLOAD PUSH2 0x179A SWAP1 PUSH2 0x1FA9 JUMP JUMPDEST SWAP1 PUSH1 0x0 MSTORE PUSH1 0x20 PUSH1 0x0 KECCAK256 SWAP1 PUSH1 0x1F ADD PUSH1 0x20 SWAP1 DIV DUP2 ADD SWAP3 DUP3 PUSH2 0x17BC JUMPI PUSH1 0x0 DUP6 SSTORE PUSH2 0x180A JUMP JUMPDEST DUP3 PUSH1 0x1F LT PUSH2 0x17CD JUMPI DUP1 SLOAD DUP6 SSTORE PUSH2 0x180A JUMP JUMPDEST DUP3 DUP1 ADD PUSH1 0x1 ADD DUP6 SSTORE DUP3 ISZERO PUSH2 0x180A JUMPI PUSH1 0x0 MSTORE PUSH1 0x20 PUSH1 0x0 KECCAK256 SWAP2 PUSH1 0x1F ADD PUSH1 0x20 SWAP1 DIV DUP3 ADD JUMPDEST DUP3 DUP2 GT ISZERO PUSH2 0x1809 JUMPI DUP3 SLOAD DUP3 SSTORE SWAP2 PUSH1 0x1 ADD SWAP2 SWAP1 PUSH1 0x1 ADD SWAP1 PUSH2 0x17EE JUMP JUMPDEST JUMPDEST POP SWAP1 POP PUSH2 0x1817 SWAP2 SWAP1 PUSH2 0x181B JUMP JUMPDEST POP SWAP1 JUMP JUMPDEST JUMPDEST DUP1 DUP3 GT ISZERO PUSH2 0x1834 JUMPI PUSH1 0x0 DUP2 PUSH1 0x0 SWAP1 SSTORE POP PUSH1 0x1 ADD PUSH2 0x181C JUMP JUMPDEST POP SWAP1 JUMP JUMPDEST PUSH1 0x0 PUSH1 0x40 MLOAD SWAP1 POP SWAP1 JUMP JUMPDEST PUSH1 0x0 DUP1 REVERT JUMPDEST PUSH1 0x0 DUP1 REVERT JUMPDEST PUSH1 0x0 PUSH20 0xFFFFFFFFFFFFFFFFFFFFFFFFFFFFFFFFFFFFFFFF DUP3 AND SWAP1 POP SWAP2 SWAP1 POP JUMP JUMPDEST PUSH1 0x0 PUSH2 0x1877 DUP3 PUSH2 0x184C JUMP JUMPDEST SWAP1 POP SWAP2 SWAP1 POP JUMP JUMPDEST PUSH2 0x1887 DUP2 PUSH2 0x186C JUMP JUMPDEST DUP2 EQ PUSH2 0x1892 JUMPI PUSH1 0x0 DUP1 REVERT JUMPDEST POP JUMP JUMPDEST PUSH1 0x0 DUP2 CALLDATALOAD SWAP1 POP PUSH2 0x18A4 DUP2 PUSH2 0x187E JUMP JUMPDEST SWAP3 SWAP2 POP POP JUMP JUMPDEST PUSH1 0x0 PUSH1 0x20 DUP3 DUP5 SUB SLT ISZERO PUSH2 0x18C0 JUMPI PUSH2 0x18BF PUSH2 0x1842 JUMP JUMPDEST JUMPDEST PUSH1 0x0 PUSH2 0x18CE DUP5 DUP3 DUP6 ADD PUSH2 0x1895 JUMP JUMPDEST SWAP2 POP POP SWAP3 SWAP2 POP POP JUMP JUMPDEST PUSH1 0x0 DUP2 MLOAD SWAP1 POP SWAP2 SWAP1 POP JUMP JUMPDEST PUSH1 0x0 DUP3 DUP3 MSTORE PUSH1 0x20 DUP3 ADD SWAP1 POP SWAP3 SWAP2 POP POP JUMP JUMPDEST PUSH1 0x0 JUMPDEST DUP4 DUP2 LT ISZERO PUSH2 0x1911 JUMPI DUP1 DUP3 ADD MLOAD DUP2 DUP5 ADD MSTORE PUSH1 0x20 DUP2 ADD SWAP1 POP PUSH2 0x18F6 JUMP JUMPDEST DUP4 DUP2 GT ISZERO PUSH2 0x1920 JUMPI PUSH1 0x0 DUP5 DUP5 ADD MSTORE JUMPDEST POP POP POP POP JUMP JUMPDEST PUSH1 0x0 PUSH1 0x1F NOT PUSH1 0x1F DUP4 ADD AND SWAP1 POP SWAP2 SWAP1 POP JUMP JUMPDEST PUSH1 0x0 PUSH2 0x1942 DUP3 PUSH2 0x18D7 JUMP JUMPDEST PUSH2 0x194C DUP2 DUP6 PUSH2 0x18E2 JUMP JUMPDEST SWAP4 POP PUSH2 0x195C DUP2 DUP6 PUSH1 0x20 DUP7 ADD PUSH2 0x18F3 JUMP JUMPDEST PUSH2 0x1965 DUP2 PUSH2 0x1926 JUMP JUMPDEST DUP5 ADD SWAP2 POP POP SWAP3 SWAP2 POP POP JUMP JUMPDEST PUSH1 0x0 PUSH2 0xFFFF DUP3 AND SWAP1 POP SWAP2 SWAP1 POP JUMP JUMPDEST PUSH2 0x1987 DUP2 PUSH2 0x1970 JUMP JUMPDEST DUP3 MSTORE POP POP JUMP JUMPDEST PUSH1 0x0 DUP2 SWAP1 POP SWAP2 SWAP1 POP JUMP JUMPDEST PUSH2 0x19A0 DUP2 PUSH2 0x198D JUMP JUMPDEST DUP3 MSTORE POP POP JUMP JUMPDEST PUSH1 0x0 DUP2 ISZERO ISZERO SWAP1 POP SWAP2 SWAP1 POP JUMP JUMPDEST PUSH2 0x19BB DUP2 PUSH2 0x19A6 JUMP JUMPDEST DUP3 MSTORE POP POP JUMP JUMPDEST PUSH1 0x0 PUSH1 0xE0 DUP4 ADD PUSH1 0x0 DUP4 ADD MLOAD DUP5 DUP3 SUB PUSH1 0x0 DUP7 ADD MSTORE PUSH2 0x19DE DUP3 DUP3 PUSH2 0x1937 JUMP JUMPDEST SWAP2 POP POP PUSH1 0x20 DUP4 ADD MLOAD PUSH2 0x19F3 PUSH1 0x20 DUP7 ADD DUP3 PUSH2 0x197E JUMP JUMPDEST POP PUSH1 0x40 DUP4 ADD MLOAD DUP5 DUP3 SUB PUSH1 0x40 DUP7 ADD MSTORE PUSH2 0x1A0B DUP3 DUP3 PUSH2 0x1937 JUMP JUMPDEST SWAP2 POP POP PUSH1 0x60 DUP4 ADD MLOAD PUSH2 0x1A20 PUSH1 0x60 DUP7 ADD DUP3 PUSH2 0x1997 JUMP JUMPDEST POP PUSH1 0x80 DUP4 ADD MLOAD DUP5 DUP3 SUB PUSH1 0x80 DUP7 ADD MSTORE PUSH2 0x1A38 DUP3 DUP3 PUSH2 0x1937 JUMP JUMPDEST SWAP2 POP POP PUSH1 0xA0 DUP4 ADD MLOAD PUSH2 0x1A4D PUSH1 0xA0 DUP7 ADD DUP3 PUSH2 0x197E JUMP JUMPDEST POP PUSH1 0xC0 DUP4 ADD MLOAD PUSH2 0x1A60 PUSH1 0xC0 DUP7 ADD DUP3 PUSH2 0x19B2 JUMP JUMPDEST POP DUP1 SWAP2 POP POP SWAP3 SWAP2 POP POP JUMP JUMPDEST PUSH1 0x0 PUSH1 0x20 DUP3 ADD SWAP1 POP DUP2 DUP2 SUB PUSH1 0x0 DUP4 ADD MSTORE PUSH2 0x1A85 DUP2 DUP5 PUSH2 0x19C1 JUMP JUMPDEST SWAP1 POP SWAP3 SWAP2 POP POP JUMP JUMPDEST PUSH1 0x0 DUP1 REVERT JUMPDEST PUSH1 0x0 DUP1 REVERT JUMPDEST PUSH32 0x4E487B7100000000000000000000000000000000000000000000000000000000 PUSH1 0x0 MSTORE PUSH1 0x41 PUSH1 0x4 MSTORE PUSH1 0x24 PUSH1 0x0 REVERT JUMPDEST PUSH2 0x1ACF DUP3 PUSH2 0x1926 JUMP JUMPDEST DUP2 ADD DUP2 DUP2 LT PUSH8 0xFFFFFFFFFFFFFFFF DUP3 GT OR ISZERO PUSH2 0x1AEE JUMPI PUSH2 0x1AED PUSH2 0x1A97 JUMP JUMPDEST JUMPDEST DUP1 PUSH1 0x40 MSTORE POP POP POP JUMP JUMPDEST PUSH1 0x0 PUSH2 0x1B01 PUSH2 0x1838 JUMP JUMPDEST SWAP1 POP PUSH2 0x1B0D DUP3 DUP3 PUSH2 0x1AC6 JUMP JUMPDEST SWAP2 SWAP1 POP JUMP JUMPDEST PUSH1 0x0 PUSH8 0xFFFFFFFFFFFFFFFF DUP3 GT ISZERO PUSH2 0x1B2D JUMPI PUSH2 0x1B2C PUSH2 0x1A97 JUMP JUMPDEST JUMPDEST PUSH2 0x1B36 DUP3 PUSH2 0x1926 JUMP JUMPDEST SWAP1 POP PUSH1 0x20 DUP2 ADD SWAP1 POP SWAP2 SWAP1 POP JUMP JUMPDEST DUP3 DUP2 DUP4 CALLDATACOPY PUSH1 0x0 DUP4 DUP4 ADD MSTORE POP POP POP JUMP JUMPDEST PUSH1 0x0 PUSH2 0x1B65 PUSH2 0x1B60 DUP5 PUSH2 0x1B12 JUMP JUMPDEST PUSH2 0x1AF7 JUMP JUMPDEST SWAP1 POP DUP3 DUP2 MSTORE PUSH1 0x20 DUP2 ADD DUP5 DUP5 DUP5 ADD GT ISZERO PUSH2 0x1B81 JUMPI PUSH2 0x1B80 PUSH2 0x1A92 JUMP JUMPDEST JUMPDEST PUSH2 0x1B8C DUP5 DUP3 DUP6 PUSH2 0x1B43 JUMP JUMPDEST POP SWAP4 SWAP3 POP POP POP JUMP JUMPDEST PUSH1 0x0 DUP3 PUSH1 0x1F DUP4 ADD SLT PUSH2 0x1BA9 JUMPI PUSH2 0x1BA8 PUSH2 0x1A8D JUMP JUMPDEST JUMPDEST DUP2 CALLDATALOAD PUSH2 0x1BB9 DUP5 DUP3 PUSH1 0x20 DUP7 ADD PUSH2 0x1B52 JUMP JUMPDEST SWAP2 POP POP SWAP3 SWAP2 POP POP JUMP JUMPDEST PUSH1 0x0 DUP1 PUSH1 0x40 DUP4 DUP6 SUB SLT ISZERO PUSH2 0x1BD9 JUMPI PUSH2 0x1BD8 PUSH2 0x1842 JUMP JUMPDEST JUMPDEST PUSH1 0x0 PUSH2 0x1BE7 DUP6 DUP3 DUP7 ADD PUSH2 0x1895 JUMP JUMPDEST SWAP3 POP POP PUSH1 0x20 DUP4 ADD CALLDATALOAD PUSH8 0xFFFFFFFFFFFFFFFF DUP2 GT ISZERO PUSH2 0x1C08 JUMPI PUSH2 0x1C07 PUSH2 0x1847 JUMP JUMPDEST JUMPDEST PUSH2 0x1C14 DUP6 DUP3 DUP7 ADD PUSH2 0x1B94 JUMP JUMPDEST SWAP2 POP POP SWAP3 POP SWAP3 SWAP1 POP JUMP JUMPDEST PUSH2 0x1C27 DUP2 PUSH2 0x198D JUMP JUMPDEST DUP3 MSTORE POP POP JUMP JUMPDEST PUSH1 0x0 PUSH1 0x20 DUP3 ADD SWAP1 POP PUSH2 0x1C42 PUSH1 0x0 DUP4 ADD DUP5 PUSH2 0x1C1E JUMP JUMPDEST SWAP3 SWAP2 POP POP JUMP JUMPDEST PUSH2 0x1C51 DUP2 PUSH2 0x1970 JUMP JUMPDEST DUP2 EQ PUSH2 0x1C5C JUMPI PUSH1 0x0 DUP1 REVERT JUMPDEST POP JUMP JUMPDEST PUSH1 0x0 DUP2 CALLDATALOAD SWAP1 POP PUSH2 0x1C6E DUP2 PUSH2 0x1C48 JUMP JUMPDEST SWAP3 SWAP2 POP POP JUMP JUMPDEST PUSH2 0x1C7D DUP2 PUSH2 0x198D JUMP JUMPDEST DUP2 EQ PUSH2 0x1C88 JUMPI PUSH1 0x0 DUP1 REVERT JUMPDEST POP JUMP JUMPDEST PUSH1 0x0 DUP2 CALLDATALOAD SWAP1 POP PUSH2 0x1C9A DUP2 PUSH2 0x1C74 JUMP JUMPDEST SWAP3 SWAP2 POP POP JUMP JUMPDEST PUSH1 0x0 DUP1 PUSH1 0x0 DUP1 PUSH1 0x0 DUP1 PUSH1 0xC0 DUP8 DUP10 SUB SLT ISZERO PUSH2 0x1CBD JUMPI PUSH2 0x1CBC PUSH2 0x1842 JUMP JUMPDEST JUMPDEST PUSH1 0x0 DUP8 ADD CALLDATALOAD PUSH8 0xFFFFFFFFFFFFFFFF DUP2 GT ISZERO PUSH2 0x1CDB JUMPI PUSH2 0x1CDA PUSH2 0x1847 JUMP JUMPDEST JUMPDEST PUSH2 0x1CE7 DUP10 DUP3 DUP11 ADD PUSH2 0x1B94 JUMP JUMPDEST SWAP7 POP POP PUSH1 0x20 PUSH2 0x1CF8 DUP10 DUP3 DUP11 ADD PUSH2 0x1C5F JUMP JUMPDEST SWAP6 POP POP PUSH1 0x40 DUP8 ADD CALLDATALOAD PUSH8 0xFFFFFFFFFFFFFFFF DUP2 GT ISZERO PUSH2 0x1D19 JUMPI PUSH2 0x1D18 PUSH2 0x1847 JUMP JUMPDEST JUMPDEST PUSH2 0x1D25 DUP10 DUP3 DUP11 ADD PUSH2 0x1B94 JUMP JUMPDEST SWAP5 POP POP PUSH1 0x60 PUSH2 0x1D36 DUP10 DUP3 DUP11 ADD PUSH2 0x1C8B JUMP JUMPDEST SWAP4 POP POP PUSH1 0x80 DUP8 ADD CALLDATALOAD PUSH8 0xFFFFFFFFFFFFFFFF DUP2 GT ISZERO PUSH2 0x1D57 JUMPI PUSH2 0x1D56 PUSH2 0x1847 JUMP JUMPDEST JUMPDEST PUSH2 0x1D63 DUP10 DUP3 DUP11 ADD PUSH2 0x1B94 JUMP JUMPDEST SWAP3 POP POP PUSH1 0xA0 PUSH2 0x1D74 DUP10 DUP3 DUP11 ADD PUSH2 0x1C5F JUMP JUMPDEST SWAP2 POP POP SWAP3 SWAP6 POP SWAP3 SWAP6 POP SWAP3 SWAP6 JUMP JUMPDEST PUSH1 0x0 DUP1 PUSH1 0x0 DUP1 PUSH1 0x0 DUP1 PUSH1 0x0 PUSH1 0xE0 DUP9 DUP11 SUB SLT ISZERO PUSH2 0x1DA0 JUMPI PUSH2 0x1D9F PUSH2 0x1842 JUMP JUMPDEST JUMPDEST PUSH1 0x0 PUSH2 0x1DAE DUP11 DUP3 DUP12 ADD PUSH2 0x1895 JUMP JUMPDEST SWAP8 POP POP PUSH1 0x20 DUP9 ADD CALLDATALOAD PUSH8 0xFFFFFFFFFFFFFFFF DUP2 GT ISZERO PUSH2 0x1DCF JUMPI PUSH2 0x1DCE PUSH2 0x1847 JUMP JUMPDEST JUMPDEST PUSH2 0x1DDB DUP11 DUP3 DUP12 ADD PUSH2 0x1B94 JUMP JUMPDEST SWAP7 POP POP PUSH1 0x40 PUSH2 0x1DEC DUP11 DUP3 DUP12 ADD PUSH2 0x1C5F JUMP JUMPDEST SWAP6 POP POP PUSH1 0x60 DUP9 ADD CALLDATALOAD PUSH8 0xFFFFFFFFFFFFFFFF DUP2 GT ISZERO PUSH2 0x1E0D JUMPI PUSH2 0x1E0C PUSH2 0x1847 JUMP JUMPDEST JUMPDEST PUSH2 0x1E19 DUP11 DUP3 DUP12 ADD PUSH2 0x1B94 JUMP JUMPDEST SWAP5 POP POP PUSH1 0x80 PUSH2 0x1E2A DUP11 DUP3 DUP12 ADD PUSH2 0x1C8B JUMP JUMPDEST SWAP4 POP POP PUSH1 0xA0 DUP9 ADD CALLDATALOAD PUSH8 0xFFFFFFFFFFFFFFFF DUP2 GT ISZERO PUSH2 0x1E4B JUMPI PUSH2 0x1E4A PUSH2 0x1847 JUMP JUMPDEST JUMPDEST PUSH2 0x1E57 DUP11 DUP3 DUP12 ADD PUSH2 0x1B94 JUMP JUMPDEST SWAP3 POP POP PUSH1 0xC0 PUSH2 0x1E68 DUP11 DUP3 DUP12 ADD PUSH2 0x1C5F JUMP JUMPDEST SWAP2 POP POP SWAP3 SWAP6 SWAP9 SWAP2 SWAP5 SWAP8 POP SWAP3 SWAP6 POP JUMP JUMPDEST PUSH1 0x0 DUP3 DUP3 MSTORE PUSH1 0x20 DUP3 ADD SWAP1 POP SWAP3 SWAP2 POP POP JUMP JUMPDEST PUSH1 0x0 PUSH2 0x1E93 DUP3 PUSH2 0x18D7 JUMP JUMPDEST PUSH2 0x1E9D DUP2 DUP6 PUSH2 0x1E77 JUMP JUMPDEST SWAP4 POP PUSH2 0x1EAD DUP2 DUP6 PUSH1 0x20 DUP7 ADD PUSH2 0x18F3 JUMP JUMPDEST PUSH2 0x1EB6 DUP2 PUSH2 0x1926 JUMP JUMPDEST DUP5 ADD SWAP2 POP POP SWAP3 SWAP2 POP POP JUMP JUMPDEST PUSH1 0x0 PUSH1 0x20 DUP3 ADD SWAP1 POP DUP2 DUP2 SUB PUSH1 0x0 DUP4 ADD MSTORE PUSH2 0x1EDB DUP2 DUP5 PUSH2 0x1E88 JUMP JUMPDEST SWAP1 POP SWAP3 SWAP2 POP POP JUMP JUMPDEST PUSH1 0x0 PUSH1 0x20 DUP3 DUP5 SUB SLT ISZERO PUSH2 0x1EF9 JUMPI PUSH2 0x1EF8 PUSH2 0x1842 JUMP JUMPDEST JUMPDEST PUSH1 0x0 PUSH2 0x1F07 DUP5 DUP3 DUP6 ADD PUSH2 0x1C8B JUMP JUMPDEST SWAP2 POP POP SWAP3 SWAP2 POP POP JUMP JUMPDEST PUSH2 0x1F19 DUP2 PUSH2 0x186C JUMP JUMPDEST DUP3 MSTORE POP POP JUMP JUMPDEST PUSH1 0x0 PUSH1 0x20 DUP3 ADD SWAP1 POP PUSH2 0x1F34 PUSH1 0x0 DUP4 ADD DUP5 PUSH2 0x1F10 JUMP JUMPDEST SWAP3 SWAP2 POP POP JUMP JUMPDEST PUSH1 0x0 DUP1 PUSH1 0x40 DUP4 DUP6 SUB SLT ISZERO PUSH2 0x1F51 JUMPI PUSH2 0x1F50 PUSH2 0x1842 JUMP JUMPDEST JUMPDEST PUSH1 0x0 PUSH2 0x1F5F DUP6 DUP3 DUP7 ADD PUSH2 0x1895 JUMP JUMPDEST SWAP3 POP POP PUSH1 0x20 PUSH2 0x1F70 DUP6 DUP3 DUP7 ADD PUSH2 0x1C8B JUMP JUMPDEST SWAP2 POP POP SWAP3 POP SWAP3 SWAP1 POP JUMP JUMPDEST PUSH32 0x4E487B7100000000000000000000000000000000000000000000000000000000 PUSH1 0x0 MSTORE PUSH1 0x22 PUSH1 0x4 MSTORE PUSH1 0x24 PUSH1 0x0 REVERT JUMPDEST PUSH1 0x0 PUSH1 0x2 DUP3 DIV SWAP1 POP PUSH1 0x1 DUP3 AND DUP1 PUSH2 0x1FC1 JUMPI PUSH1 0x7F DUP3 AND SWAP2 POP JUMPDEST PUSH1 0x20 DUP3 LT DUP2 EQ ISZERO PUSH2 0x1FD5 JUMPI PUSH2 0x1FD4 PUSH2 0x1F7A JUMP JUMPDEST JUMPDEST POP SWAP2 SWAP1 POP JUMP JUMPDEST PUSH1 0x0 DUP2 SWAP1 POP SWAP3 SWAP2 POP POP JUMP JUMPDEST PUSH1 0x0 PUSH2 0x1FF1 DUP3 PUSH2 0x18D7 JUMP JUMPDEST PUSH2 0x1FFB DUP2 DUP6 PUSH2 0x1FDB JUMP JUMPDEST SWAP4 POP PUSH2 0x200B DUP2 DUP6 PUSH1 0x20 DUP7 ADD PUSH2 0x18F3 JUMP JUMPDEST DUP1 DUP5 ADD SWAP2 POP POP SWAP3 SWAP2 POP POP JUMP JUMPDEST PUSH1 0x0 PUSH2 0x2023 DUP3 DUP5 PUSH2 0x1FE6 JUMP JUMPDEST SWAP2 POP DUP2 SWAP1 POP SWAP3 SWAP2 POP POP JUMP JUMPDEST PUSH32 0x4E487B7100000000000000000000000000000000000000000000000000000000 PUSH1 0x0 MSTORE PUSH1 0x11 PUSH1 0x4 MSTORE PUSH1 0x24 PUSH1 0x0 REVERT JUMPDEST PUSH1 0x0 PUSH2 0x2068 DUP3 PUSH2 0x198D JUMP JUMPDEST SWAP2 POP PUSH2 0x2073 DUP4 PUSH2 0x198D JUMP JUMPDEST SWAP3 POP DUP3 PUSH32 0xFFFFFFFFFFFFFFFFFFFFFFFFFFFFFFFFFFFFFFFFFFFFFFFFFFFFFFFFFFFFFFFF SUB DUP3 GT ISZERO PUSH2 0x20A8 JUMPI PUSH2 0x20A7 PUSH2 0x202E JUMP JUMPDEST JUMPDEST DUP3 DUP3 ADD SWAP1 POP SWAP3 SWAP2 POP POP JUMP JUMPDEST PUSH32 0x4E487B7100000000000000000000000000000000000000000000000000000000 PUSH1 0x0 MSTORE PUSH1 0x32 PUSH1 0x4 MSTORE PUSH1 0x24 PUSH1 0x0 REVERT JUMPDEST PUSH1 0x0 DUP2 SWAP1 POP DUP2 PUSH1 0x0 MSTORE PUSH1 0x20 PUSH1 0x0 KECCAK256 SWAP1 POP SWAP2 SWAP1 POP JUMP JUMPDEST PUSH1 0x0 DUP2 SLOAD PUSH2 0x2104 DUP2 PUSH2 0x1FA9 JUMP JUMPDEST PUSH2 0x210E DUP2 DUP7 PUSH2 0x1FDB JUMP JUMPDEST SWAP5 POP PUSH1 0x1 DUP3 AND PUSH1 0x0 DUP2 EQ PUSH2 0x2129 JUMPI PUSH1 0x1 DUP2 EQ PUSH2 0x213A JUMPI PUSH2 0x216D JUMP JUMPDEST PUSH1 0xFF NOT DUP4 AND DUP7 MSTORE DUP2 DUP7 ADD SWAP4 POP PUSH2 0x216D JUMP JUMPDEST PUSH2 0x2143 DUP6 PUSH2 0x20E2 JUMP JUMPDEST PUSH1 0x0 JUMPDEST DUP4 DUP2 LT ISZERO PUSH2 0x2165 JUMPI DUP2 SLOAD DUP2 DUP10 ADD MSTORE PUSH1 0x1 DUP3 ADD SWAP2 POP PUSH1 0x20 DUP2 ADD SWAP1 POP PUSH2 0x2146 JUMP JUMPDEST DUP4 DUP9 ADD SWAP6 POP POP POP JUMPDEST POP POP POP SWAP3 SWAP2 POP POP JUMP JUMPDEST PUSH1 0x0 PUSH2 0x2182 DUP3 DUP5 PUSH2 0x20F7 JUMP JUMPDEST SWAP2 POP DUP2 SWAP1 POP SWAP3 SWAP2 POP POP JUMP JUMPDEST PUSH1 0x0 PUSH2 0x2198 DUP3 PUSH2 0x1970 JUMP JUMPDEST SWAP2 POP PUSH2 0xFFFF DUP3 EQ ISZERO PUSH2 0x21AD JUMPI PUSH2 0x21AC PUSH2 0x202E JUMP JUMPDEST JUMPDEST PUSH1 0x1 DUP3 ADD SWAP1 POP SWAP2 SWAP1 POP JUMP JUMPDEST PUSH1 0x0 PUSH2 0x21C3 DUP3 PUSH2 0x198D JUMP JUMPDEST SWAP2 POP PUSH2 0x21CE DUP4 PUSH2 0x198D JUMP JUMPDEST SWAP3 POP DUP3 DUP3 LT ISZERO PUSH2 0x21E1 JUMPI PUSH2 0x21E0 PUSH2 0x202E JUMP JUMPDEST JUMPDEST DUP3 DUP3 SUB SWAP1 POP SWAP3 SWAP2 POP POP JUMP JUMPDEST PUSH1 0x0 PUSH2 0x21F7 DUP3 PUSH2 0x198D JUMP JUMPDEST SWAP2 POP PUSH32 0xFFFFFFFFFFFFFFFFFFFFFFFFFFFFFFFFFFFFFFFFFFFFFFFFFFFFFFFFFFFFFFFF DUP3 EQ ISZERO PUSH2 0x222A JUMPI PUSH2 0x2229 PUSH2 0x202E JUMP JUMPDEST JUMPDEST PUSH1 0x1 DUP3 ADD SWAP1 POP SWAP2 SWAP1 POP JUMP INVALID LOG2 PUSH5 0x6970667358 0x22 SLT KECCAK256 KECCAK256 SHR EQ SLOAD LOG0 SWAP4 0xC5 PUSH8 0x3A37A75D2EE7C628 SLT NOT 0xD0 MULMOD 0xD1 SDIV ORIGIN PUSH20 0x91913FB73164CED664736F6C634300080B003300 "},"gasEstimates":{"creation":{"codeDepositCost":"1762200","executionCost":"infinite","totalCost":"infinite"},"external":{"CalculateWinnerCandidate()":"infinite","CandidateLottery()":"infinite","EntreDetails(string,uint16,string,uint256,string,uint16)":"infinite","approveVote(address,uint256)":"infinite","giveVote(address,string)":"infinite","s_totalVoters(uint256)":"5000","showMyDetails(address)":"infinite","showTotalVotedCount()":"2482","showWinner()":"infinite","totalNonVotedCount()":"infinite","updateDetails(address,string,uint16,string,uint256,string,uint16)":"infinite"}},"methodIdentifiers":{"CalculateWinnerCandidate()":"6a9b8805","CandidateLottery()":"7d0e540b","EntreDetails(string,uint16,string,uint256,string,uint16)":"589e2b74","approveVote(address,uint256)":"ea6fb131","giveVote(address,string)":"2a20a300","s_totalVoters(uint256)":"9c2050e5","showMyDetails(address)":"0fc1ab0c","showTotalVotedCount()":"428dd1e2","showWinner()":"b7e03264","totalNonVotedCount()":"ddbbeff0","updateDetails(address,string,uint16,string,uint256,string,uint16)":"5fa20a47"}},"storageLayout":{"storage":[{"astId":392,"contract":"Contracts/vote.sol:vote","label":"Amit_Shah","offset":0,"slot":"0","type":"t_uint256"},{"astId":395,"contract":"Contracts/vote.sol:vote","label":"Rahul_Gandhi","offset":0,"slot":"1","type":"t_uint256"},{"astId":398,"contract":"Contracts/vote.sol:vote","label":"Mamata_Banargee","offset":0,"slot":"2","type":"t_uint256"},{"astId":401,"contract":"Contracts/vote.sol:vote","label":"Kejariwal","offset":0,"slot":"3","type":"t_uint256"},{"astId":403,"contract":"Contracts/vote.sol:vote","label":"Winner","offset":0,"slot":"4","type":"t_string_storage"},{"astId":410,"contract":"Contracts/vote.sol:vote","label":"s_voterDetails","offset":0,"slot":"5","type":"t_mapping(t_address,t_struct(VoterDetails)389_storage)"},{"astId":414,"contract":"Contracts/vote.sol:vote","label":"s_voteToCandidate","offset":0,"slot":"6","type":"t_mapping(t_string_memory_ptr,t_uint256)"},{"astId":418,"contract":"Contracts/vote.sol:vote","label":"userExists","offset":0,"slot":"7","type":"t_mapping(t_address,t_bool)"},{"astId":421,"contract":"Contracts/vote.sol:vote","label":"s_totalVoters","offset":0,"slot":"8","type":"t_array(t_address)dyn_storage"},{"astId":424,"contract":"Contracts/vote.sol:vote","label":"totalVotedCount","offset":0,"slot":"9","type":"t_uint256"},{"astId":427,"contract":"Contracts/vote.sol:vote","label":"candidatesWithSimilarVote","offset":0,"slot":"10","type":"t_uint256"},{"astId":436,"contract":"Contracts/vote.sol:vote","label":"candidates","offset":0,"slot":"11","type":"t_array(t_string_storage)4_storage"},{"astId":439,"contract":"Contracts/vote.sol:vote","label":"similarVoteCount","offset":0,"slot":"15","type":"t_array(t_string_storage)dyn_storage"}],"types":{"t_address":{"encoding":"inplace","label":"address","numberOfBytes":"20"},"t_array(t_address)dyn_storage":{"base":"t_address","encoding":"dynamic_array","label":"address[]","numberOfBytes":"32"},"t_array(t_string_storage)4_storage":{"base":"t_string_storage","encoding":"inplace","label":"string[4]","numberOfBytes":"128"},"t_array(t_string_storage)dyn_storage":{"base":"t_string_storage","encoding":"dynamic_array","label":"string[]","numberOfBytes":"32"},"t_bool":{"encoding":"inplace","label":"bool","numberOfBytes":"1"},"t_mapping(t_address,t_bool)":{"encoding":"mapping","key":"t_address","label":"mapping(address => bool)","numberOfBytes":"32","value":"t_bool"},"t_mapping(t_address,t_struct(VoterDetails)389_storage)":{"encoding":"mapping","key":"t_address","label":"mapping(address => struct vote.VoterDetails)","numberOfBytes":"32","value":"t_struct(VoterDetails)389_storage"},"t_mapping(t_string_memory_ptr,t_uint256)":{"encoding":"mapping","key":"t_string_memory_ptr","label":"mapping(string => uint256)","numberOfBytes":"32","value":"t_uint256"},"t_string_memory_ptr":{"encoding":"bytes","label":"string","numberOfBytes":"32"},"t_string_storage":{"encoding":"bytes","label":"string","numberOfBytes":"32"},"t_struct(VoterDetails)389_storage":{"encoding":"inplace","label":"struct vote.VoterDetails","members":[{"astId":376,"contract":"Contracts/vote.sol:vote","label":"Name","offset":0,"slot":"0","type":"t_string_storage"},{"astId":378,"contract":"Contracts/vote.sol:vote","label":"Age","offset":0,"slot":"1","type":"t_uint16"},{"astId":380,"contract":"Contracts/vote.sol:vote","label":"Nationality","offset":0,"slot":"2","type":"t_string_storage"},{"astId":382,"contract":"Contracts/vote.sol:vote","label":"Aadhar","offset":0,"slot":"3","type":"t_uint256"},{"astId":384,"contract":"Contracts/vote.sol:vote","label":"Pan","offset":0,"slot":"4","type":"t_string_storage"},{"astId":386,"contract":"Contracts/vote.sol:vote","label":"Ward","offset":0,"slot":"5","type":"t_uint16"},{"astId":388,"contract":"Contracts/vote.sol:vote","label":"voteGivenOrNot","offset":2,"slot":"5","type":"t_bool"}],"numberOfBytes":"192"},"t_uint16":{"encoding":"inplace","label":"uint16","numberOfBytes":"2"},"t_uint256":{"encoding":"inplace","label":"uint256","numberOfBytes":"32"}}},"userdoc":{"kind":"user","methods":{},"version":1}}}}