{
  "_format": "hh-sol-artifact-1",
  "contractName": "GenerateRandomNumber",
  "sourceName": "Contracts/GenerateRandomNumber.sol",
  "abi": [
    {
      "inputs": [
        {
          "internalType": "address",
          "name": "vrfCoordinator",
          "type": "address"
        },
        {
          "internalType": "uint256",
          "name": "entranceFees",
          "type": "uint256"
        },
        {
          "internalType": "bytes32",
          "name": "keyHash",
          "type": "bytes32"
        },
        {
          "internalType": "uint64",
          "name": "subscriptioiniId",
          "type": "uint64"
        },
        {
          "internalType": "uint32",
          "name": "callBackGasLimit",
          "type": "uint32"
        }
      ],
      "stateMutability": "nonpayable",
      "type": "constructor"
    },
    {
      "inputs": [
        {
          "internalType": "address",
          "name": "have",
          "type": "address"
        },
        {
          "internalType": "address",
          "name": "want",
          "type": "address"
        }
      ],
      "name": "OnlyCoordinatorCanFulfill",
      "type": "error"
    },
    {
      "inputs": [
        {
          "internalType": "uint256",
          "name": "",
          "type": "uint256"
        }
      ],
      "name": "array",
      "outputs": [
        {
          "internalType": "uint256",
          "name": "",
          "type": "uint256"
        }
      ],
      "stateMutability": "view",
      "type": "function"
    },
    {
      "inputs": [],
      "name": "index",
      "outputs": [
        {
          "internalType": "uint256",
          "name": "",
          "type": "uint256"
        }
      ],
      "stateMutability": "view",
      "type": "function"
    },
    {
      "inputs": [
        {
          "internalType": "uint256",
          "name": "requestId",
          "type": "uint256"
        },
        {
          "internalType": "uint256[]",
          "name": "randomWords",
          "type": "uint256[]"
        }
      ],
      "name": "rawFulfillRandomWords",
      "outputs": [],
      "stateMutability": "nonpayable",
      "type": "function"
    },
    {
      "inputs": [],
      "name": "requestRandomWinner",
      "outputs": [
        {
          "internalType": "uint256",
          "name": "",
          "type": "uint256"
        }
      ],
      "stateMutability": "nonpayable",
      "type": "function"
    },
    {
      "inputs": [],
      "name": "showRandomNumber",
      "outputs": [
        {
          "internalType": "uint256",
          "name": "",
          "type": "uint256"
        }
      ],
      "stateMutability": "view",
      "type": "function"
    }
  ],
  "bytecode": "0x6101406040526040518060800160405280607b61ffff1681526020016101c861ffff16815260200161031561ffff168152602001606661ffff1681525060019060046200004e92919062000139565b503480156200005c57600080fd5b5060405162000bbd38038062000bbd833981810160405281019062000082919062000309565b848073ffffffffffffffffffffffffffffffffffffffff1660808173ffffffffffffffffffffffffffffffffffffffff1681525050508360c081815250508473ffffffffffffffffffffffffffffffffffffffff1660a08173ffffffffffffffffffffffffffffffffffffffff16815250508260e081815250508167ffffffffffffffff166101008167ffffffffffffffff16815250508063ffffffff166101208163ffffffff1681525050505050505062000391565b826004810192821562000171579160200282015b8281111562000170578251829061ffff169055916020019190600101906200014d565b5b50905062000180919062000184565b5090565b5b808211156200019f57600081600090555060010162000185565b5090565b600080fd5b600073ffffffffffffffffffffffffffffffffffffffff82169050919050565b6000620001d582620001a8565b9050919050565b620001e781620001c8565b8114620001f357600080fd5b50565b6000815190506200020781620001dc565b92915050565b6000819050919050565b62000222816200020d565b81146200022e57600080fd5b50565b600081519050620002428162000217565b92915050565b6000819050919050565b6200025d8162000248565b81146200026957600080fd5b50565b6000815190506200027d8162000252565b92915050565b600067ffffffffffffffff82169050919050565b620002a28162000283565b8114620002ae57600080fd5b50565b600081519050620002c28162000297565b92915050565b600063ffffffff82169050919050565b620002e381620002c8565b8114620002ef57600080fd5b50565b6000815190506200030381620002d8565b92915050565b600080600080600060a08688031215620003285762000327620001a3565b5b60006200033888828901620001f6565b95505060206200034b8882890162000231565b94505060406200035e888289016200026c565b93505060606200037188828901620002b1565b92505060806200038488828901620002f2565b9150509295509295909350565b60805160a05160c05160e05161010051610120516107d8620003e5600039600061028701526000610264015260006102430152600050506000610207015260008181610104015261015801526107d86000f3fe608060405234801561001057600080fd5b50600436106100575760003560e01c80631fe543e31461005c5780632986c0e51461007857806338d94193146100965780634516e06f146100c6578063522a1f0b146100e4575b600080fd5b610076600480360381019061007191906104e9565b610102565b005b6100806101c2565b60405161008d9190610554565b60405180910390f35b6100b060048036038101906100ab919061056f565b6101c8565b6040516100bd9190610554565b60405180910390f35b6100ce6101e3565b6040516100db9190610554565b60405180910390f35b6100ec610202565b6040516100f99190610554565b60405180910390f35b7f000000000000000000000000000000000000000000000000000000000000000073ffffffffffffffffffffffffffffffffffffffff163373ffffffffffffffffffffffffffffffffffffffff16146101b457337f00000000000000000000000000000000000000000000000000000000000000006040517f1cf993f40000000000000000000000000000000000000000000000000000000081526004016101ab9291906105dd565b60405180910390fd5b6101be8282610314565b5050565b60005481565b600181600481106101d857600080fd5b016000915090505481565b60006001600054600481106101fb576101fa610606565b5b0154905090565b6000807f000000000000000000000000000000000000000000000000000000000000000073ffffffffffffffffffffffffffffffffffffffff16635d3b1d307f00000000000000000000000000000000000000000000000000000000000000007f000000000000000000000000000000000000000000000000000000000000000060037f000000000000000000000000000000000000000000000000000000000000000060016040518663ffffffff1660e01b81526004016102c89594939291906106ad565b6020604051808303816000875af11580156102e7573d6000803e3d6000fd5b505050506040513d601f19601f8201168201806040525081019061030b9190610715565b90508091505090565b60048160008151811061032a57610329610606565b5b602002602001015161033c9190610771565b6000819055505050565b6000604051905090565b600080fd5b600080fd5b6000819050919050565b61036d8161035a565b811461037857600080fd5b50565b60008135905061038a81610364565b92915050565b600080fd5b6000601f19601f8301169050919050565b7f4e487b7100000000000000000000000000000000000000000000000000000000600052604160045260246000fd5b6103de82610395565b810181811067ffffffffffffffff821117156103fd576103fc6103a6565b5b80604052505050565b6000610410610346565b905061041c82826103d5565b919050565b600067ffffffffffffffff82111561043c5761043b6103a6565b5b602082029050602081019050919050565b600080fd5b600061046561046084610421565b610406565b905080838252602082019050602084028301858111156104885761048761044d565b5b835b818110156104b1578061049d888261037b565b84526020840193505060208101905061048a565b5050509392505050565b600082601f8301126104d0576104cf610390565b5b81356104e0848260208601610452565b91505092915050565b60008060408385031215610500576104ff610350565b5b600061050e8582860161037b565b925050602083013567ffffffffffffffff81111561052f5761052e610355565b5b61053b858286016104bb565b9150509250929050565b61054e8161035a565b82525050565b60006020820190506105696000830184610545565b92915050565b60006020828403121561058557610584610350565b5b60006105938482850161037b565b91505092915050565b600073ffffffffffffffffffffffffffffffffffffffff82169050919050565b60006105c78261059c565b9050919050565b6105d7816105bc565b82525050565b60006040820190506105f260008301856105ce565b6105ff60208301846105ce565b9392505050565b7f4e487b7100000000000000000000000000000000000000000000000000000000600052603260045260246000fd5b6000819050919050565b61064881610635565b82525050565b600067ffffffffffffffff82169050919050565b61066b8161064e565b82525050565b600061ffff82169050919050565b61068881610671565b82525050565b600063ffffffff82169050919050565b6106a78161068e565b82525050565b600060a0820190506106c2600083018861063f565b6106cf6020830187610662565b6106dc604083018661067f565b6106e9606083018561069e565b6106f6608083018461069e565b9695505050505050565b60008151905061070f81610364565b92915050565b60006020828403121561072b5761072a610350565b5b600061073984828501610700565b91505092915050565b7f4e487b7100000000000000000000000000000000000000000000000000000000600052601260045260246000fd5b600061077c8261035a565b91506107878361035a565b92508261079757610796610742565b5b82820690509291505056fea26469706673582212203226cb2bdfa0fcf0db160c32624f351a318461d13369b2887359f695ae71733164736f6c634300080b0033",
  "linkReferences": {},
  "deployedLinkReferences": {}
}